{
	"FinalCase.sol": {
		"Example": {
			"abi": [
				{
					"inputs": [],
					"stateMutability": "nonpayable",
					"type": "constructor"
				},
				{
					"anonymous": false,
					"inputs": [
						{
							"indexed": false,
							"internalType": "address",
							"name": "userAddress",
							"type": "address"
						},
						{
							"indexed": false,
							"internalType": "string",
							"name": "name",
							"type": "string"
						},
						{
							"indexed": false,
							"internalType": "uint256",
							"name": "age",
							"type": "uint256"
						}
					],
					"name": "NewUser",
					"type": "event"
				},
				{
					"inputs": [
						{
							"internalType": "uint256",
							"name": "_transaction",
							"type": "uint256"
						}
					],
					"name": "addTransaction",
					"outputs": [],
					"stateMutability": "nonpayable",
					"type": "function"
				},
				{
					"inputs": [],
					"name": "doAdultAction",
					"outputs": [],
					"stateMutability": "nonpayable",
					"type": "function"
				},
				{
					"inputs": [
						{
							"internalType": "string",
							"name": "_name",
							"type": "string"
						},
						{
							"internalType": "uint256",
							"name": "_age",
							"type": "uint256"
						}
					],
					"name": "updateUser",
					"outputs": [],
					"stateMutability": "nonpayable",
					"type": "function"
				},
				{
					"inputs": [
						{
							"internalType": "address",
							"name": "",
							"type": "address"
						}
					],
					"name": "users",
					"outputs": [
						{
							"internalType": "string",
							"name": "name",
							"type": "string"
						},
						{
							"internalType": "uint256",
							"name": "age",
							"type": "uint256"
						},
						{
							"internalType": "address",
							"name": "userAddress",
							"type": "address"
						}
					],
					"stateMutability": "view",
					"type": "function"
				}
			],
			"devdoc": {
				"kind": "dev",
				"methods": {},
				"version": 1
			},
			"evm": {
				"assembly": "    /* \"FinalCase.sol\":57:1433  contract Example {... */\n  mstore(0x40, 0x80)\n    /* \"FinalCase.sol\":460:552  constructor() {... */\n  callvalue\n  dup1\n  iszero\n  tag_1\n  jumpi\n  0x00\n  dup1\n  revert\ntag_1:\n  pop\n    /* \"FinalCase.sol\":500:545  User(\"Alice\", 25, new uint[](10), msg.sender) */\n  mload(0x40)\n  dup1\n  0x80\n  add\n  0x40\n  mstore\n  dup1\n  mload(0x40)\n  dup1\n  0x40\n  add\n  0x40\n  mstore\n  dup1\n  0x05\n  dup2\n  mstore\n  0x20\n  add\n  0x416c696365000000000000000000000000000000000000000000000000000000\n  dup2\n  mstore\n  pop\n  dup2\n  mstore\n  0x20\n  add\n    /* \"FinalCase.sol\":514:516  25 */\n  0x19\n    /* \"FinalCase.sol\":500:545  User(\"Alice\", 25, new uint[](10), msg.sender) */\n  dup2\n  mstore\n  0x20\n  add\n    /* \"FinalCase.sol\":529:531  10 */\n  0x0a\n    /* \"FinalCase.sol\":518:532  new uint[](10) */\n  0xffffffffffffffff\n  dup2\n  gt\n  iszero\n  tag_4\n  jumpi\n  tag_5\n  tag_6\n  jump\t// in\ntag_5:\ntag_4:\n  mload(0x40)\n  swap1\n  dup1\n  dup3\n  mstore\n  dup1\n  0x20\n  mul\n  0x20\n  add\n  dup3\n  add\n  0x40\n  mstore\n  dup1\n  iszero\n  tag_7\n  jumpi\n  dup2\n  0x20\n  add\n  0x20\n  dup3\n  mul\n  dup1\n  calldatasize\n  dup4\n  calldatacopy\n  dup1\n  dup3\n  add\n  swap2\n  pop\n  pop\n  swap1\n  pop\ntag_7:\n  pop\n    /* \"FinalCase.sol\":500:545  User(\"Alice\", 25, new uint[](10), msg.sender) */\n  dup2\n  mstore\n  0x20\n  add\n    /* \"FinalCase.sol\":534:544  msg.sender */\n  caller\n    /* \"FinalCase.sol\":500:545  User(\"Alice\", 25, new uint[](10), msg.sender) */\n  0xffffffffffffffffffffffffffffffffffffffff\n  and\n  dup2\n  mstore\n  pop\n    /* \"FinalCase.sol\":480:485  users */\n  0x00\n    /* \"FinalCase.sol\":480:497  users[msg.sender] */\n  dup1\n    /* \"FinalCase.sol\":486:496  msg.sender */\n  caller\n    /* \"FinalCase.sol\":480:497  users[msg.sender] */\n  0xffffffffffffffffffffffffffffffffffffffff\n  and\n  0xffffffffffffffffffffffffffffffffffffffff\n  and\n  dup2\n  mstore\n  0x20\n  add\n  swap1\n  dup2\n  mstore\n  0x20\n  add\n  0x00\n  keccak256\n    /* \"FinalCase.sol\":480:545  users[msg.sender] = User(\"Alice\", 25, new uint[](10), msg.sender) */\n  0x00\n  dup3\n  add\n  mload\n  dup2\n  0x00\n  add\n  swap1\n  dup1\n  mload\n  swap1\n  0x20\n  add\n  swap1\n  tag_8\n  swap3\n  swap2\n  swap1\n  tag_9\n  jump\t// in\ntag_8:\n  pop\n  0x20\n  dup3\n  add\n  mload\n  dup2\n  0x01\n  add\n  sstore\n  0x40\n  dup3\n  add\n  mload\n  dup2\n  0x02\n  add\n  swap1\n  dup1\n  mload\n  swap1\n  0x20\n  add\n  swap1\n  tag_10\n  swap3\n  swap2\n  swap1\n  tag_11\n  jump\t// in\ntag_10:\n  pop\n  0x60\n  dup3\n  add\n  mload\n  dup2\n  0x03\n  add\n  exp(0x0100, 0x00)\n  dup2\n  sload\n  dup2\n  0xffffffffffffffffffffffffffffffffffffffff\n  mul\n  not\n  and\n  swap1\n  dup4\n  0xffffffffffffffffffffffffffffffffffffffff\n  and\n  mul\n  or\n  swap1\n  sstore\n  pop\n  swap1\n  pop\n  pop\n    /* \"FinalCase.sol\":57:1433  contract Example {... */\n  jump(tag_12)\ntag_9:\n  dup3\n  dup1\n  sload\n  tag_13\n  swap1\n  tag_14\n  jump\t// in\ntag_13:\n  swap1\n  0x00\n  mstore\n  keccak256(0x00, 0x20)\n  swap1\n  0x1f\n  add\n  0x20\n  swap1\n  div\n  dup2\n  add\n  swap3\n  dup3\n  tag_16\n  jumpi\n  0x00\n  dup6\n  sstore\n  jump(tag_15)\ntag_16:\n  dup3\n  0x1f\n  lt\n  tag_17\n  jumpi\n  dup1\n  mload\n  not(0xff)\n  and\n  dup4\n  dup1\n  add\n  or\n  dup6\n  sstore\n  jump(tag_15)\ntag_17:\n  dup3\n  dup1\n  add\n  0x01\n  add\n  dup6\n  sstore\n  dup3\n  iszero\n  tag_15\n  jumpi\n  swap2\n  dup3\n  add\ntag_18:\n  dup3\n  dup2\n  gt\n  iszero\n  tag_19\n  jumpi\n  dup3\n  mload\n  dup3\n  sstore\n  swap2\n  0x20\n  add\n  swap2\n  swap1\n  0x01\n  add\n  swap1\n  jump(tag_18)\ntag_19:\ntag_15:\n  pop\n  swap1\n  pop\n  tag_20\n  swap2\n  swap1\n  tag_21\n  jump\t// in\ntag_20:\n  pop\n  swap1\n  jump\t// out\ntag_11:\n  dup3\n  dup1\n  sload\n  dup3\n  dup3\n  sstore\n  swap1\n  0x00\n  mstore\n  keccak256(0x00, 0x20)\n  swap1\n  dup2\n  add\n  swap3\n  dup3\n  iszero\n  tag_22\n  jumpi\n  swap2\n  0x20\n  mul\n  dup3\n  add\ntag_23:\n  dup3\n  dup2\n  gt\n  iszero\n  tag_24\n  jumpi\n  dup3\n  mload\n  dup3\n  sstore\n  swap2\n  0x20\n  add\n  swap2\n  swap1\n  0x01\n  add\n  swap1\n  jump(tag_23)\ntag_24:\ntag_22:\n  pop\n  swap1\n  pop\n  tag_25\n  swap2\n  swap1\n  tag_21\n  jump\t// in\ntag_25:\n  pop\n  swap1\n  jump\t// out\ntag_21:\ntag_26:\n  dup1\n  dup3\n  gt\n  iszero\n  tag_27\n  jumpi\n  0x00\n  dup2\n  0x00\n  swap1\n  sstore\n  pop\n  0x01\n  add\n  jump(tag_26)\ntag_27:\n  pop\n  swap1\n  jump\t// out\n    /* \"#utility.yul\":7:327   */\ntag_14:\n    /* \"#utility.yul\":51:57   */\n  0x00\n    /* \"#utility.yul\":88:89   */\n  0x02\n    /* \"#utility.yul\":82:86   */\n  dup3\n    /* \"#utility.yul\":78:90   */\n  div\n    /* \"#utility.yul\":68:90   */\n  swap1\n  pop\n    /* \"#utility.yul\":135:136   */\n  0x01\n    /* \"#utility.yul\":129:133   */\n  dup3\n    /* \"#utility.yul\":125:137   */\n  and\n    /* \"#utility.yul\":156:174   */\n  dup1\n    /* \"#utility.yul\":146:227   */\n  tag_30\n  jumpi\n    /* \"#utility.yul\":212:216   */\n  0x7f\n    /* \"#utility.yul\":204:210   */\n  dup3\n    /* \"#utility.yul\":200:217   */\n  and\n    /* \"#utility.yul\":190:217   */\n  swap2\n  pop\n    /* \"#utility.yul\":146:227   */\ntag_30:\n    /* \"#utility.yul\":274:276   */\n  0x20\n    /* \"#utility.yul\":266:272   */\n  dup3\n    /* \"#utility.yul\":263:277   */\n  lt\n    /* \"#utility.yul\":243:261   */\n  dup2\n    /* \"#utility.yul\":240:278   */\n  eq\n    /* \"#utility.yul\":237:321   */\n  iszero\n  tag_31\n  jumpi\n    /* \"#utility.yul\":293:311   */\n  tag_32\n  tag_33\n  jump\t// in\ntag_32:\n    /* \"#utility.yul\":237:321   */\ntag_31:\n    /* \"#utility.yul\":58:327   */\n  pop\n    /* \"#utility.yul\":7:327   */\n  swap2\n  swap1\n  pop\n  jump\t// out\n    /* \"#utility.yul\":333:513   */\ntag_33:\n    /* \"#utility.yul\":381:458   */\n  0x4e487b7100000000000000000000000000000000000000000000000000000000\n    /* \"#utility.yul\":378:379   */\n  0x00\n    /* \"#utility.yul\":371:459   */\n  mstore\n    /* \"#utility.yul\":478:482   */\n  0x22\n    /* \"#utility.yul\":475:476   */\n  0x04\n    /* \"#utility.yul\":468:483   */\n  mstore\n    /* \"#utility.yul\":502:506   */\n  0x24\n    /* \"#utility.yul\":499:500   */\n  0x00\n    /* \"#utility.yul\":492:507   */\n  revert\n    /* \"#utility.yul\":519:699   */\ntag_6:\n    /* \"#utility.yul\":567:644   */\n  0x4e487b7100000000000000000000000000000000000000000000000000000000\n    /* \"#utility.yul\":564:565   */\n  0x00\n    /* \"#utility.yul\":557:645   */\n  mstore\n    /* \"#utility.yul\":664:668   */\n  0x41\n    /* \"#utility.yul\":661:662   */\n  0x04\n    /* \"#utility.yul\":654:669   */\n  mstore\n    /* \"#utility.yul\":688:692   */\n  0x24\n    /* \"#utility.yul\":685:686   */\n  0x00\n    /* \"#utility.yul\":678:693   */\n  revert\n    /* \"FinalCase.sol\":57:1433  contract Example {... */\ntag_12:\n  dataSize(sub_0)\n  dup1\n  dataOffset(sub_0)\n  0x00\n  codecopy\n  0x00\n  return\nstop\n\nsub_0: assembly {\n        /* \"FinalCase.sol\":57:1433  contract Example {... */\n      mstore(0x40, 0x80)\n      callvalue\n      dup1\n      iszero\n      tag_1\n      jumpi\n      0x00\n      dup1\n      revert\n    tag_1:\n      pop\n      jumpi(tag_2, lt(calldatasize, 0x04))\n      shr(0xe0, calldataload(0x00))\n      dup1\n      0x12786d7e\n      eq\n      tag_3\n      jumpi\n      dup1\n      0x176f964c\n      eq\n      tag_4\n      jumpi\n      dup1\n      0x2bf9866f\n      eq\n      tag_5\n      jumpi\n      dup1\n      0xa87430ba\n      eq\n      tag_6\n      jumpi\n    tag_2:\n      0x00\n      dup1\n      revert\n        /* \"FinalCase.sol\":1326:1431  function doAdultAction() onlyAdults public {... */\n    tag_3:\n      tag_7\n      tag_8\n      jump\t// in\n    tag_7:\n      stop\n        /* \"FinalCase.sol\":904:1104  function addTransaction(uint _transaction) public {... */\n    tag_4:\n      tag_9\n      0x04\n      dup1\n      calldatasize\n      sub\n      dup2\n      add\n      swap1\n      tag_10\n      swap2\n      swap1\n      tag_11\n      jump\t// in\n    tag_10:\n      tag_12\n      jump\t// in\n    tag_9:\n      stop\n        /* \"FinalCase.sol\":595:866  function updateUser(string memory _name, uint _age) public {... */\n    tag_5:\n      tag_13\n      0x04\n      dup1\n      calldatasize\n      sub\n      dup2\n      add\n      swap1\n      tag_14\n      swap2\n      swap1\n      tag_15\n      jump\t// in\n    tag_14:\n      tag_16\n      jump\t// in\n    tag_13:\n      stop\n        /* \"FinalCase.sol\":114:151  mapping(address => User) public users */\n    tag_6:\n      tag_17\n      0x04\n      dup1\n      calldatasize\n      sub\n      dup2\n      add\n      swap1\n      tag_18\n      swap2\n      swap1\n      tag_19\n      jump\t// in\n    tag_18:\n      tag_20\n      jump\t// in\n    tag_17:\n      mload(0x40)\n      tag_21\n      swap4\n      swap3\n      swap2\n      swap1\n      tag_22\n      jump\t// in\n    tag_21:\n      mload(0x40)\n      dup1\n      swap2\n      sub\n      swap1\n      return\n        /* \"FinalCase.sol\":1326:1431  function doAdultAction() onlyAdults public {... */\n    tag_8:\n        /* \"FinalCase.sol\":1208:1210  18 */\n      0x12\n        /* \"FinalCase.sol\":1183:1188  users */\n      0x00\n        /* \"FinalCase.sol\":1183:1200  users[msg.sender] */\n      dup1\n        /* \"FinalCase.sol\":1189:1199  msg.sender */\n      caller\n        /* \"FinalCase.sol\":1183:1200  users[msg.sender] */\n      0xffffffffffffffffffffffffffffffffffffffff\n      and\n      0xffffffffffffffffffffffffffffffffffffffff\n      and\n      dup2\n      mstore\n      0x20\n      add\n      swap1\n      dup2\n      mstore\n      0x20\n      add\n      0x00\n      keccak256\n        /* \"FinalCase.sol\":1183:1204  users[msg.sender].age */\n      0x01\n      add\n      sload\n        /* \"FinalCase.sol\":1183:1210  users[msg.sender].age >= 18 */\n      lt\n      iszero\n        /* \"FinalCase.sol\":1175:1250  require(users[msg.sender].age >= 18, \"Access denied. Must be 18 or older.\") */\n      tag_24\n      jumpi\n      mload(0x40)\n      0x08c379a000000000000000000000000000000000000000000000000000000000\n      dup2\n      mstore\n      0x04\n      add\n      tag_25\n      swap1\n      tag_26\n      jump\t// in\n    tag_25:\n      mload(0x40)\n      dup1\n      swap2\n      sub\n      swap1\n      revert\n    tag_24:\n        /* \"FinalCase.sol\":1326:1431  function doAdultAction() onlyAdults public {... */\n      jump\t// out\n        /* \"FinalCase.sol\":904:1104  function addTransaction(uint _transaction) public {... */\n    tag_12:\n        /* \"FinalCase.sol\":986:991  users */\n      0x00\n        /* \"FinalCase.sol\":986:1003  users[msg.sender] */\n      dup1\n        /* \"FinalCase.sol\":992:1002  msg.sender */\n      caller\n        /* \"FinalCase.sol\":986:1003  users[msg.sender] */\n      0xffffffffffffffffffffffffffffffffffffffff\n      and\n      0xffffffffffffffffffffffffffffffffffffffff\n      and\n      dup2\n      mstore\n      0x20\n      add\n      swap1\n      dup2\n      mstore\n      0x20\n      add\n      0x00\n      keccak256\n        /* \"FinalCase.sol\":986:1015  users[msg.sender].userAddress */\n      0x03\n      add\n      0x00\n      swap1\n      sload\n      swap1\n      0x0100\n      exp\n      swap1\n      div\n      0xffffffffffffffffffffffffffffffffffffffff\n      and\n        /* \"FinalCase.sol\":972:1015  msg.sender == users[msg.sender].userAddress */\n      0xffffffffffffffffffffffffffffffffffffffff\n      and\n        /* \"FinalCase.sol\":972:982  msg.sender */\n      caller\n        /* \"FinalCase.sol\":972:1015  msg.sender == users[msg.sender].userAddress */\n      0xffffffffffffffffffffffffffffffffffffffff\n      and\n      eq\n        /* \"FinalCase.sol\":964:1034  require(msg.sender == users[msg.sender].userAddress, \"Access denied.\") */\n      tag_29\n      jumpi\n      mload(0x40)\n      0x08c379a000000000000000000000000000000000000000000000000000000000\n      dup2\n      mstore\n      0x04\n      add\n      tag_30\n      swap1\n      tag_31\n      jump\t// in\n    tag_30:\n      mload(0x40)\n      dup1\n      swap2\n      sub\n      swap1\n      revert\n    tag_29:\n        /* \"FinalCase.sol\":1044:1049  users */\n      0x00\n        /* \"FinalCase.sol\":1044:1061  users[msg.sender] */\n      dup1\n        /* \"FinalCase.sol\":1050:1060  msg.sender */\n      caller\n        /* \"FinalCase.sol\":1044:1061  users[msg.sender] */\n      0xffffffffffffffffffffffffffffffffffffffff\n      and\n      0xffffffffffffffffffffffffffffffffffffffff\n      and\n      dup2\n      mstore\n      0x20\n      add\n      swap1\n      dup2\n      mstore\n      0x20\n      add\n      0x00\n      keccak256\n        /* \"FinalCase.sol\":1044:1078  users[msg.sender].pastTransactions */\n      0x02\n      add\n        /* \"FinalCase.sol\":1084:1096  _transaction */\n      dup2\n        /* \"FinalCase.sol\":1044:1097  users[msg.sender].pastTransactions.push(_transaction) */\n      swap1\n      dup1\n      0x01\n      dup2\n      sload\n      add\n      dup1\n      dup3\n      sstore\n      dup1\n      swap2\n      pop\n      pop\n      0x01\n      swap1\n      sub\n      swap1\n      0x00\n      mstore\n      keccak256(0x00, 0x20)\n      add\n      0x00\n      swap1\n      swap2\n      swap1\n      swap2\n      swap1\n      swap2\n      pop\n      sstore\n        /* \"FinalCase.sol\":904:1104  function addTransaction(uint _transaction) public {... */\n      pop\n      jump\t// out\n        /* \"FinalCase.sol\":595:866  function updateUser(string memory _name, uint _age) public {... */\n    tag_16:\n        /* \"FinalCase.sol\":686:691  users */\n      0x00\n        /* \"FinalCase.sol\":686:703  users[msg.sender] */\n      dup1\n        /* \"FinalCase.sol\":692:702  msg.sender */\n      caller\n        /* \"FinalCase.sol\":686:703  users[msg.sender] */\n      0xffffffffffffffffffffffffffffffffffffffff\n      and\n      0xffffffffffffffffffffffffffffffffffffffff\n      and\n      dup2\n      mstore\n      0x20\n      add\n      swap1\n      dup2\n      mstore\n      0x20\n      add\n      0x00\n      keccak256\n        /* \"FinalCase.sol\":686:715  users[msg.sender].userAddress */\n      0x03\n      add\n      0x00\n      swap1\n      sload\n      swap1\n      0x0100\n      exp\n      swap1\n      div\n      0xffffffffffffffffffffffffffffffffffffffff\n      and\n        /* \"FinalCase.sol\":672:715  msg.sender == users[msg.sender].userAddress */\n      0xffffffffffffffffffffffffffffffffffffffff\n      and\n        /* \"FinalCase.sol\":672:682  msg.sender */\n      caller\n        /* \"FinalCase.sol\":672:715  msg.sender == users[msg.sender].userAddress */\n      0xffffffffffffffffffffffffffffffffffffffff\n      and\n      eq\n        /* \"FinalCase.sol\":664:734  require(msg.sender == users[msg.sender].userAddress, \"Access denied.\") */\n      tag_34\n      jumpi\n      mload(0x40)\n      0x08c379a000000000000000000000000000000000000000000000000000000000\n      dup2\n      mstore\n      0x04\n      add\n      tag_35\n      swap1\n      tag_31\n      jump\t// in\n    tag_35:\n      mload(0x40)\n      dup1\n      swap2\n      sub\n      swap1\n      revert\n    tag_34:\n        /* \"FinalCase.sol\":769:774  _name */\n      dup2\n        /* \"FinalCase.sol\":744:749  users */\n      0x00\n        /* \"FinalCase.sol\":744:761  users[msg.sender] */\n      dup1\n        /* \"FinalCase.sol\":750:760  msg.sender */\n      caller\n        /* \"FinalCase.sol\":744:761  users[msg.sender] */\n      0xffffffffffffffffffffffffffffffffffffffff\n      and\n      0xffffffffffffffffffffffffffffffffffffffff\n      and\n      dup2\n      mstore\n      0x20\n      add\n      swap1\n      dup2\n      mstore\n      0x20\n      add\n      0x00\n      keccak256\n        /* \"FinalCase.sol\":744:766  users[msg.sender].name */\n      0x00\n      add\n        /* \"FinalCase.sol\":744:774  users[msg.sender].name = _name */\n      swap1\n      dup1\n      mload\n      swap1\n      0x20\n      add\n      swap1\n      tag_36\n      swap3\n      swap2\n      swap1\n      tag_37\n      jump\t// in\n    tag_36:\n      pop\n        /* \"FinalCase.sol\":808:812  _age */\n      dup1\n        /* \"FinalCase.sol\":784:789  users */\n      0x00\n        /* \"FinalCase.sol\":784:801  users[msg.sender] */\n      dup1\n        /* \"FinalCase.sol\":790:800  msg.sender */\n      caller\n        /* \"FinalCase.sol\":784:801  users[msg.sender] */\n      0xffffffffffffffffffffffffffffffffffffffff\n      and\n      0xffffffffffffffffffffffffffffffffffffffff\n      and\n      dup2\n      mstore\n      0x20\n      add\n      swap1\n      dup2\n      mstore\n      0x20\n      add\n      0x00\n      keccak256\n        /* \"FinalCase.sol\":784:805  users[msg.sender].age */\n      0x01\n      add\n        /* \"FinalCase.sol\":784:812  users[msg.sender].age = _age */\n      dup2\n      swap1\n      sstore\n      pop\n        /* \"FinalCase.sol\":827:859  NewUser(msg.sender, _name, _age) */\n      0x329d359cf9f4051167ad17cee4f7c13e33128369772783e288c19fcdd1384fed\n        /* \"FinalCase.sol\":835:845  msg.sender */\n      caller\n        /* \"FinalCase.sol\":847:852  _name */\n      dup4\n        /* \"FinalCase.sol\":854:858  _age */\n      dup4\n        /* \"FinalCase.sol\":827:859  NewUser(msg.sender, _name, _age) */\n      mload(0x40)\n      tag_38\n      swap4\n      swap3\n      swap2\n      swap1\n      tag_39\n      jump\t// in\n    tag_38:\n      mload(0x40)\n      dup1\n      swap2\n      sub\n      swap1\n      log1\n        /* \"FinalCase.sol\":595:866  function updateUser(string memory _name, uint _age) public {... */\n      pop\n      pop\n      jump\t// out\n        /* \"FinalCase.sol\":114:151  mapping(address => User) public users */\n    tag_20:\n      mstore(0x20, 0x00)\n      dup1\n      0x00\n      mstore\n      keccak256(0x00, 0x40)\n      0x00\n      swap2\n      pop\n      swap1\n      pop\n      dup1\n      0x00\n      add\n      dup1\n      sload\n      tag_40\n      swap1\n      tag_41\n      jump\t// in\n    tag_40:\n      dup1\n      0x1f\n      add\n      0x20\n      dup1\n      swap2\n      div\n      mul\n      0x20\n      add\n      mload(0x40)\n      swap1\n      dup2\n      add\n      0x40\n      mstore\n      dup1\n      swap3\n      swap2\n      swap1\n      dup2\n      dup2\n      mstore\n      0x20\n      add\n      dup3\n      dup1\n      sload\n      tag_42\n      swap1\n      tag_41\n      jump\t// in\n    tag_42:\n      dup1\n      iszero\n      tag_43\n      jumpi\n      dup1\n      0x1f\n      lt\n      tag_44\n      jumpi\n      0x0100\n      dup1\n      dup4\n      sload\n      div\n      mul\n      dup4\n      mstore\n      swap2\n      0x20\n      add\n      swap2\n      jump(tag_43)\n    tag_44:\n      dup3\n      add\n      swap2\n      swap1\n      0x00\n      mstore\n      keccak256(0x00, 0x20)\n      swap1\n    tag_45:\n      dup2\n      sload\n      dup2\n      mstore\n      swap1\n      0x01\n      add\n      swap1\n      0x20\n      add\n      dup1\n      dup4\n      gt\n      tag_45\n      jumpi\n      dup3\n      swap1\n      sub\n      0x1f\n      and\n      dup3\n      add\n      swap2\n    tag_43:\n      pop\n      pop\n      pop\n      pop\n      pop\n      swap1\n      dup1\n      0x01\n      add\n      sload\n      swap1\n      dup1\n      0x03\n      add\n      0x00\n      swap1\n      sload\n      swap1\n      0x0100\n      exp\n      swap1\n      div\n      0xffffffffffffffffffffffffffffffffffffffff\n      and\n      swap1\n      pop\n      dup4\n      jump\t// out\n    tag_37:\n      dup3\n      dup1\n      sload\n      tag_46\n      swap1\n      tag_41\n      jump\t// in\n    tag_46:\n      swap1\n      0x00\n      mstore\n      keccak256(0x00, 0x20)\n      swap1\n      0x1f\n      add\n      0x20\n      swap1\n      div\n      dup2\n      add\n      swap3\n      dup3\n      tag_48\n      jumpi\n      0x00\n      dup6\n      sstore\n      jump(tag_47)\n    tag_48:\n      dup3\n      0x1f\n      lt\n      tag_49\n      jumpi\n      dup1\n      mload\n      not(0xff)\n      and\n      dup4\n      dup1\n      add\n      or\n      dup6\n      sstore\n      jump(tag_47)\n    tag_49:\n      dup3\n      dup1\n      add\n      0x01\n      add\n      dup6\n      sstore\n      dup3\n      iszero\n      tag_47\n      jumpi\n      swap2\n      dup3\n      add\n    tag_50:\n      dup3\n      dup2\n      gt\n      iszero\n      tag_51\n      jumpi\n      dup3\n      mload\n      dup3\n      sstore\n      swap2\n      0x20\n      add\n      swap2\n      swap1\n      0x01\n      add\n      swap1\n      jump(tag_50)\n    tag_51:\n    tag_47:\n      pop\n      swap1\n      pop\n      tag_52\n      swap2\n      swap1\n      tag_53\n      jump\t// in\n    tag_52:\n      pop\n      swap1\n      jump\t// out\n    tag_53:\n    tag_54:\n      dup1\n      dup3\n      gt\n      iszero\n      tag_55\n      jumpi\n      0x00\n      dup2\n      0x00\n      swap1\n      sstore\n      pop\n      0x01\n      add\n      jump(tag_54)\n    tag_55:\n      pop\n      swap1\n      jump\t// out\n        /* \"#utility.yul\":7:419   */\n    tag_57:\n        /* \"#utility.yul\":85:90   */\n      0x00\n        /* \"#utility.yul\":110:176   */\n      tag_59\n        /* \"#utility.yul\":126:175   */\n      tag_60\n        /* \"#utility.yul\":168:174   */\n      dup5\n        /* \"#utility.yul\":126:175   */\n      tag_61\n      jump\t// in\n    tag_60:\n        /* \"#utility.yul\":110:176   */\n      tag_62\n      jump\t// in\n    tag_59:\n        /* \"#utility.yul\":101:176   */\n      swap1\n      pop\n        /* \"#utility.yul\":199:205   */\n      dup3\n        /* \"#utility.yul\":192:197   */\n      dup2\n        /* \"#utility.yul\":185:206   */\n      mstore\n        /* \"#utility.yul\":237:241   */\n      0x20\n        /* \"#utility.yul\":230:235   */\n      dup2\n        /* \"#utility.yul\":226:242   */\n      add\n        /* \"#utility.yul\":275:278   */\n      dup5\n        /* \"#utility.yul\":266:272   */\n      dup5\n        /* \"#utility.yul\":261:264   */\n      dup5\n        /* \"#utility.yul\":257:273   */\n      add\n        /* \"#utility.yul\":254:279   */\n      gt\n        /* \"#utility.yul\":251:363   */\n      iszero\n      tag_63\n      jumpi\n        /* \"#utility.yul\":282:361   */\n      tag_64\n      tag_65\n      jump\t// in\n    tag_64:\n        /* \"#utility.yul\":251:363   */\n    tag_63:\n        /* \"#utility.yul\":372:413   */\n      tag_66\n        /* \"#utility.yul\":406:412   */\n      dup5\n        /* \"#utility.yul\":401:404   */\n      dup3\n        /* \"#utility.yul\":396:399   */\n      dup6\n        /* \"#utility.yul\":372:413   */\n      tag_67\n      jump\t// in\n    tag_66:\n        /* \"#utility.yul\":91:419   */\n      pop\n        /* \"#utility.yul\":7:419   */\n      swap4\n      swap3\n      pop\n      pop\n      pop\n      jump\t// out\n        /* \"#utility.yul\":425:564   */\n    tag_68:\n        /* \"#utility.yul\":471:476   */\n      0x00\n        /* \"#utility.yul\":509:515   */\n      dup2\n        /* \"#utility.yul\":496:516   */\n      calldataload\n        /* \"#utility.yul\":487:516   */\n      swap1\n      pop\n        /* \"#utility.yul\":525:558   */\n      tag_70\n        /* \"#utility.yul\":552:557   */\n      dup2\n        /* \"#utility.yul\":525:558   */\n      tag_71\n      jump\t// in\n    tag_70:\n        /* \"#utility.yul\":425:564   */\n      swap3\n      swap2\n      pop\n      pop\n      jump\t// out\n        /* \"#utility.yul\":584:924   */\n    tag_72:\n        /* \"#utility.yul\":640:645   */\n      0x00\n        /* \"#utility.yul\":689:692   */\n      dup3\n        /* \"#utility.yul\":682:686   */\n      0x1f\n        /* \"#utility.yul\":674:680   */\n      dup4\n        /* \"#utility.yul\":670:687   */\n      add\n        /* \"#utility.yul\":666:693   */\n      slt\n        /* \"#utility.yul\":656:778   */\n      tag_74\n      jumpi\n        /* \"#utility.yul\":697:776   */\n      tag_75\n      tag_76\n      jump\t// in\n    tag_75:\n        /* \"#utility.yul\":656:778   */\n    tag_74:\n        /* \"#utility.yul\":814:820   */\n      dup2\n        /* \"#utility.yul\":801:821   */\n      calldataload\n        /* \"#utility.yul\":839:918   */\n      tag_77\n        /* \"#utility.yul\":914:917   */\n      dup5\n        /* \"#utility.yul\":906:912   */\n      dup3\n        /* \"#utility.yul\":899:903   */\n      0x20\n        /* \"#utility.yul\":891:897   */\n      dup7\n        /* \"#utility.yul\":887:904   */\n      add\n        /* \"#utility.yul\":839:918   */\n      tag_57\n      jump\t// in\n    tag_77:\n        /* \"#utility.yul\":830:918   */\n      swap2\n      pop\n        /* \"#utility.yul\":646:924   */\n      pop\n        /* \"#utility.yul\":584:924   */\n      swap3\n      swap2\n      pop\n      pop\n      jump\t// out\n        /* \"#utility.yul\":930:1069   */\n    tag_78:\n        /* \"#utility.yul\":976:981   */\n      0x00\n        /* \"#utility.yul\":1014:1020   */\n      dup2\n        /* \"#utility.yul\":1001:1021   */\n      calldataload\n        /* \"#utility.yul\":992:1021   */\n      swap1\n      pop\n        /* \"#utility.yul\":1030:1063   */\n      tag_80\n        /* \"#utility.yul\":1057:1062   */\n      dup2\n        /* \"#utility.yul\":1030:1063   */\n      tag_81\n      jump\t// in\n    tag_80:\n        /* \"#utility.yul\":930:1069   */\n      swap3\n      swap2\n      pop\n      pop\n      jump\t// out\n        /* \"#utility.yul\":1075:1404   */\n    tag_19:\n        /* \"#utility.yul\":1134:1140   */\n      0x00\n        /* \"#utility.yul\":1183:1185   */\n      0x20\n        /* \"#utility.yul\":1171:1180   */\n      dup3\n        /* \"#utility.yul\":1162:1169   */\n      dup5\n        /* \"#utility.yul\":1158:1181   */\n      sub\n        /* \"#utility.yul\":1154:1186   */\n      slt\n        /* \"#utility.yul\":1151:1270   */\n      iszero\n      tag_83\n      jumpi\n        /* \"#utility.yul\":1189:1268   */\n      tag_84\n      tag_85\n      jump\t// in\n    tag_84:\n        /* \"#utility.yul\":1151:1270   */\n    tag_83:\n        /* \"#utility.yul\":1309:1310   */\n      0x00\n        /* \"#utility.yul\":1334:1387   */\n      tag_86\n        /* \"#utility.yul\":1379:1386   */\n      dup5\n        /* \"#utility.yul\":1370:1376   */\n      dup3\n        /* \"#utility.yul\":1359:1368   */\n      dup6\n        /* \"#utility.yul\":1355:1377   */\n      add\n        /* \"#utility.yul\":1334:1387   */\n      tag_68\n      jump\t// in\n    tag_86:\n        /* \"#utility.yul\":1324:1387   */\n      swap2\n      pop\n        /* \"#utility.yul\":1280:1397   */\n      pop\n        /* \"#utility.yul\":1075:1404   */\n      swap3\n      swap2\n      pop\n      pop\n      jump\t// out\n        /* \"#utility.yul\":1410:2064   */\n    tag_15:\n        /* \"#utility.yul\":1488:1494   */\n      0x00\n        /* \"#utility.yul\":1496:1502   */\n      dup1\n        /* \"#utility.yul\":1545:1547   */\n      0x40\n        /* \"#utility.yul\":1533:1542   */\n      dup4\n        /* \"#utility.yul\":1524:1531   */\n      dup6\n        /* \"#utility.yul\":1520:1543   */\n      sub\n        /* \"#utility.yul\":1516:1548   */\n      slt\n        /* \"#utility.yul\":1513:1632   */\n      iszero\n      tag_88\n      jumpi\n        /* \"#utility.yul\":1551:1630   */\n      tag_89\n      tag_85\n      jump\t// in\n    tag_89:\n        /* \"#utility.yul\":1513:1632   */\n    tag_88:\n        /* \"#utility.yul\":1699:1700   */\n      0x00\n        /* \"#utility.yul\":1688:1697   */\n      dup4\n        /* \"#utility.yul\":1684:1701   */\n      add\n        /* \"#utility.yul\":1671:1702   */\n      calldataload\n        /* \"#utility.yul\":1729:1747   */\n      0xffffffffffffffff\n        /* \"#utility.yul\":1721:1727   */\n      dup2\n        /* \"#utility.yul\":1718:1748   */\n      gt\n        /* \"#utility.yul\":1715:1832   */\n      iszero\n      tag_90\n      jumpi\n        /* \"#utility.yul\":1751:1830   */\n      tag_91\n      tag_92\n      jump\t// in\n    tag_91:\n        /* \"#utility.yul\":1715:1832   */\n    tag_90:\n        /* \"#utility.yul\":1856:1919   */\n      tag_93\n        /* \"#utility.yul\":1911:1918   */\n      dup6\n        /* \"#utility.yul\":1902:1908   */\n      dup3\n        /* \"#utility.yul\":1891:1900   */\n      dup7\n        /* \"#utility.yul\":1887:1909   */\n      add\n        /* \"#utility.yul\":1856:1919   */\n      tag_72\n      jump\t// in\n    tag_93:\n        /* \"#utility.yul\":1846:1919   */\n      swap3\n      pop\n        /* \"#utility.yul\":1642:1929   */\n      pop\n        /* \"#utility.yul\":1968:1970   */\n      0x20\n        /* \"#utility.yul\":1994:2047   */\n      tag_94\n        /* \"#utility.yul\":2039:2046   */\n      dup6\n        /* \"#utility.yul\":2030:2036   */\n      dup3\n        /* \"#utility.yul\":2019:2028   */\n      dup7\n        /* \"#utility.yul\":2015:2037   */\n      add\n        /* \"#utility.yul\":1994:2047   */\n      tag_78\n      jump\t// in\n    tag_94:\n        /* \"#utility.yul\":1984:2047   */\n      swap2\n      pop\n        /* \"#utility.yul\":1939:2057   */\n      pop\n        /* \"#utility.yul\":1410:2064   */\n      swap3\n      pop\n      swap3\n      swap1\n      pop\n      jump\t// out\n        /* \"#utility.yul\":2070:2399   */\n    tag_11:\n        /* \"#utility.yul\":2129:2135   */\n      0x00\n        /* \"#utility.yul\":2178:2180   */\n      0x20\n        /* \"#utility.yul\":2166:2175   */\n      dup3\n        /* \"#utility.yul\":2157:2164   */\n      dup5\n        /* \"#utility.yul\":2153:2176   */\n      sub\n        /* \"#utility.yul\":2149:2181   */\n      slt\n        /* \"#utility.yul\":2146:2265   */\n      iszero\n      tag_96\n      jumpi\n        /* \"#utility.yul\":2184:2263   */\n      tag_97\n      tag_85\n      jump\t// in\n    tag_97:\n        /* \"#utility.yul\":2146:2265   */\n    tag_96:\n        /* \"#utility.yul\":2304:2305   */\n      0x00\n        /* \"#utility.yul\":2329:2382   */\n      tag_98\n        /* \"#utility.yul\":2374:2381   */\n      dup5\n        /* \"#utility.yul\":2365:2371   */\n      dup3\n        /* \"#utility.yul\":2354:2363   */\n      dup6\n        /* \"#utility.yul\":2350:2372   */\n      add\n        /* \"#utility.yul\":2329:2382   */\n      tag_78\n      jump\t// in\n    tag_98:\n        /* \"#utility.yul\":2319:2382   */\n      swap2\n      pop\n        /* \"#utility.yul\":2275:2392   */\n      pop\n        /* \"#utility.yul\":2070:2399   */\n      swap3\n      swap2\n      pop\n      pop\n      jump\t// out\n        /* \"#utility.yul\":2405:2523   */\n    tag_99:\n        /* \"#utility.yul\":2492:2516   */\n      tag_101\n        /* \"#utility.yul\":2510:2515   */\n      dup2\n        /* \"#utility.yul\":2492:2516   */\n      tag_102\n      jump\t// in\n    tag_101:\n        /* \"#utility.yul\":2487:2490   */\n      dup3\n        /* \"#utility.yul\":2480:2517   */\n      mstore\n        /* \"#utility.yul\":2405:2523   */\n      pop\n      pop\n      jump\t// out\n        /* \"#utility.yul\":2529:2893   */\n    tag_103:\n        /* \"#utility.yul\":2617:2620   */\n      0x00\n        /* \"#utility.yul\":2645:2684   */\n      tag_105\n        /* \"#utility.yul\":2678:2683   */\n      dup3\n        /* \"#utility.yul\":2645:2684   */\n      tag_106\n      jump\t// in\n    tag_105:\n        /* \"#utility.yul\":2700:2771   */\n      tag_107\n        /* \"#utility.yul\":2764:2770   */\n      dup2\n        /* \"#utility.yul\":2759:2762   */\n      dup6\n        /* \"#utility.yul\":2700:2771   */\n      tag_108\n      jump\t// in\n    tag_107:\n        /* \"#utility.yul\":2693:2771   */\n      swap4\n      pop\n        /* \"#utility.yul\":2780:2832   */\n      tag_109\n        /* \"#utility.yul\":2825:2831   */\n      dup2\n        /* \"#utility.yul\":2820:2823   */\n      dup6\n        /* \"#utility.yul\":2813:2817   */\n      0x20\n        /* \"#utility.yul\":2806:2811   */\n      dup7\n        /* \"#utility.yul\":2802:2818   */\n      add\n        /* \"#utility.yul\":2780:2832   */\n      tag_110\n      jump\t// in\n    tag_109:\n        /* \"#utility.yul\":2857:2886   */\n      tag_111\n        /* \"#utility.yul\":2879:2885   */\n      dup2\n        /* \"#utility.yul\":2857:2886   */\n      tag_112\n      jump\t// in\n    tag_111:\n        /* \"#utility.yul\":2852:2855   */\n      dup5\n        /* \"#utility.yul\":2848:2887   */\n      add\n        /* \"#utility.yul\":2841:2887   */\n      swap2\n      pop\n        /* \"#utility.yul\":2621:2893   */\n      pop\n        /* \"#utility.yul\":2529:2893   */\n      swap3\n      swap2\n      pop\n      pop\n      jump\t// out\n        /* \"#utility.yul\":2899:3265   */\n    tag_113:\n        /* \"#utility.yul\":3041:3044   */\n      0x00\n        /* \"#utility.yul\":3062:3129   */\n      tag_115\n        /* \"#utility.yul\":3126:3128   */\n      0x0e\n        /* \"#utility.yul\":3121:3124   */\n      dup4\n        /* \"#utility.yul\":3062:3129   */\n      tag_108\n      jump\t// in\n    tag_115:\n        /* \"#utility.yul\":3055:3129   */\n      swap2\n      pop\n        /* \"#utility.yul\":3138:3231   */\n      tag_116\n        /* \"#utility.yul\":3227:3230   */\n      dup3\n        /* \"#utility.yul\":3138:3231   */\n      tag_117\n      jump\t// in\n    tag_116:\n        /* \"#utility.yul\":3256:3258   */\n      0x20\n        /* \"#utility.yul\":3251:3254   */\n      dup3\n        /* \"#utility.yul\":3247:3259   */\n      add\n        /* \"#utility.yul\":3240:3259   */\n      swap1\n      pop\n        /* \"#utility.yul\":2899:3265   */\n      swap2\n      swap1\n      pop\n      jump\t// out\n        /* \"#utility.yul\":3271:3637   */\n    tag_118:\n        /* \"#utility.yul\":3413:3416   */\n      0x00\n        /* \"#utility.yul\":3434:3501   */\n      tag_120\n        /* \"#utility.yul\":3498:3500   */\n      0x23\n        /* \"#utility.yul\":3493:3496   */\n      dup4\n        /* \"#utility.yul\":3434:3501   */\n      tag_108\n      jump\t// in\n    tag_120:\n        /* \"#utility.yul\":3427:3501   */\n      swap2\n      pop\n        /* \"#utility.yul\":3510:3603   */\n      tag_121\n        /* \"#utility.yul\":3599:3602   */\n      dup3\n        /* \"#utility.yul\":3510:3603   */\n      tag_122\n      jump\t// in\n    tag_121:\n        /* \"#utility.yul\":3628:3630   */\n      0x40\n        /* \"#utility.yul\":3623:3626   */\n      dup3\n        /* \"#utility.yul\":3619:3631   */\n      add\n        /* \"#utility.yul\":3612:3631   */\n      swap1\n      pop\n        /* \"#utility.yul\":3271:3637   */\n      swap2\n      swap1\n      pop\n      jump\t// out\n        /* \"#utility.yul\":3643:3761   */\n    tag_123:\n        /* \"#utility.yul\":3730:3754   */\n      tag_125\n        /* \"#utility.yul\":3748:3753   */\n      dup2\n        /* \"#utility.yul\":3730:3754   */\n      tag_126\n      jump\t// in\n    tag_125:\n        /* \"#utility.yul\":3725:3728   */\n      dup3\n        /* \"#utility.yul\":3718:3755   */\n      mstore\n        /* \"#utility.yul\":3643:3761   */\n      pop\n      pop\n      jump\t// out\n        /* \"#utility.yul\":3767:4300   */\n    tag_39:\n        /* \"#utility.yul\":3936:3940   */\n      0x00\n        /* \"#utility.yul\":3974:3976   */\n      0x60\n        /* \"#utility.yul\":3963:3972   */\n      dup3\n        /* \"#utility.yul\":3959:3977   */\n      add\n        /* \"#utility.yul\":3951:3977   */\n      swap1\n      pop\n        /* \"#utility.yul\":3987:4058   */\n      tag_128\n        /* \"#utility.yul\":4055:4056   */\n      0x00\n        /* \"#utility.yul\":4044:4053   */\n      dup4\n        /* \"#utility.yul\":4040:4057   */\n      add\n        /* \"#utility.yul\":4031:4037   */\n      dup7\n        /* \"#utility.yul\":3987:4058   */\n      tag_99\n      jump\t// in\n    tag_128:\n        /* \"#utility.yul\":4105:4114   */\n      dup2\n        /* \"#utility.yul\":4099:4103   */\n      dup2\n        /* \"#utility.yul\":4095:4115   */\n      sub\n        /* \"#utility.yul\":4090:4092   */\n      0x20\n        /* \"#utility.yul\":4079:4088   */\n      dup4\n        /* \"#utility.yul\":4075:4093   */\n      add\n        /* \"#utility.yul\":4068:4116   */\n      mstore\n        /* \"#utility.yul\":4133:4211   */\n      tag_129\n        /* \"#utility.yul\":4206:4210   */\n      dup2\n        /* \"#utility.yul\":4197:4203   */\n      dup6\n        /* \"#utility.yul\":4133:4211   */\n      tag_103\n      jump\t// in\n    tag_129:\n        /* \"#utility.yul\":4125:4211   */\n      swap1\n      pop\n        /* \"#utility.yul\":4221:4293   */\n      tag_130\n        /* \"#utility.yul\":4289:4291   */\n      0x40\n        /* \"#utility.yul\":4278:4287   */\n      dup4\n        /* \"#utility.yul\":4274:4292   */\n      add\n        /* \"#utility.yul\":4265:4271   */\n      dup5\n        /* \"#utility.yul\":4221:4293   */\n      tag_123\n      jump\t// in\n    tag_130:\n        /* \"#utility.yul\":3767:4300   */\n      swap5\n      swap4\n      pop\n      pop\n      pop\n      pop\n      jump\t// out\n        /* \"#utility.yul\":4306:4839   */\n    tag_22:\n        /* \"#utility.yul\":4475:4479   */\n      0x00\n        /* \"#utility.yul\":4513:4515   */\n      0x60\n        /* \"#utility.yul\":4502:4511   */\n      dup3\n        /* \"#utility.yul\":4498:4516   */\n      add\n        /* \"#utility.yul\":4490:4516   */\n      swap1\n      pop\n        /* \"#utility.yul\":4562:4571   */\n      dup2\n        /* \"#utility.yul\":4556:4560   */\n      dup2\n        /* \"#utility.yul\":4552:4572   */\n      sub\n        /* \"#utility.yul\":4548:4549   */\n      0x00\n        /* \"#utility.yul\":4537:4546   */\n      dup4\n        /* \"#utility.yul\":4533:4550   */\n      add\n        /* \"#utility.yul\":4526:4573   */\n      mstore\n        /* \"#utility.yul\":4590:4668   */\n      tag_132\n        /* \"#utility.yul\":4663:4667   */\n      dup2\n        /* \"#utility.yul\":4654:4660   */\n      dup7\n        /* \"#utility.yul\":4590:4668   */\n      tag_103\n      jump\t// in\n    tag_132:\n        /* \"#utility.yul\":4582:4668   */\n      swap1\n      pop\n        /* \"#utility.yul\":4678:4750   */\n      tag_133\n        /* \"#utility.yul\":4746:4748   */\n      0x20\n        /* \"#utility.yul\":4735:4744   */\n      dup4\n        /* \"#utility.yul\":4731:4749   */\n      add\n        /* \"#utility.yul\":4722:4728   */\n      dup6\n        /* \"#utility.yul\":4678:4750   */\n      tag_123\n      jump\t// in\n    tag_133:\n        /* \"#utility.yul\":4760:4832   */\n      tag_134\n        /* \"#utility.yul\":4828:4830   */\n      0x40\n        /* \"#utility.yul\":4817:4826   */\n      dup4\n        /* \"#utility.yul\":4813:4831   */\n      add\n        /* \"#utility.yul\":4804:4810   */\n      dup5\n        /* \"#utility.yul\":4760:4832   */\n      tag_99\n      jump\t// in\n    tag_134:\n        /* \"#utility.yul\":4306:4839   */\n      swap5\n      swap4\n      pop\n      pop\n      pop\n      pop\n      jump\t// out\n        /* \"#utility.yul\":4845:5264   */\n    tag_31:\n        /* \"#utility.yul\":5011:5015   */\n      0x00\n        /* \"#utility.yul\":5049:5051   */\n      0x20\n        /* \"#utility.yul\":5038:5047   */\n      dup3\n        /* \"#utility.yul\":5034:5052   */\n      add\n        /* \"#utility.yul\":5026:5052   */\n      swap1\n      pop\n        /* \"#utility.yul\":5098:5107   */\n      dup2\n        /* \"#utility.yul\":5092:5096   */\n      dup2\n        /* \"#utility.yul\":5088:5108   */\n      sub\n        /* \"#utility.yul\":5084:5085   */\n      0x00\n        /* \"#utility.yul\":5073:5082   */\n      dup4\n        /* \"#utility.yul\":5069:5086   */\n      add\n        /* \"#utility.yul\":5062:5109   */\n      mstore\n        /* \"#utility.yul\":5126:5257   */\n      tag_136\n        /* \"#utility.yul\":5252:5256   */\n      dup2\n        /* \"#utility.yul\":5126:5257   */\n      tag_113\n      jump\t// in\n    tag_136:\n        /* \"#utility.yul\":5118:5257   */\n      swap1\n      pop\n        /* \"#utility.yul\":4845:5264   */\n      swap2\n      swap1\n      pop\n      jump\t// out\n        /* \"#utility.yul\":5270:5689   */\n    tag_26:\n        /* \"#utility.yul\":5436:5440   */\n      0x00\n        /* \"#utility.yul\":5474:5476   */\n      0x20\n        /* \"#utility.yul\":5463:5472   */\n      dup3\n        /* \"#utility.yul\":5459:5477   */\n      add\n        /* \"#utility.yul\":5451:5477   */\n      swap1\n      pop\n        /* \"#utility.yul\":5523:5532   */\n      dup2\n        /* \"#utility.yul\":5517:5521   */\n      dup2\n        /* \"#utility.yul\":5513:5533   */\n      sub\n        /* \"#utility.yul\":5509:5510   */\n      0x00\n        /* \"#utility.yul\":5498:5507   */\n      dup4\n        /* \"#utility.yul\":5494:5511   */\n      add\n        /* \"#utility.yul\":5487:5534   */\n      mstore\n        /* \"#utility.yul\":5551:5682   */\n      tag_138\n        /* \"#utility.yul\":5677:5681   */\n      dup2\n        /* \"#utility.yul\":5551:5682   */\n      tag_118\n      jump\t// in\n    tag_138:\n        /* \"#utility.yul\":5543:5682   */\n      swap1\n      pop\n        /* \"#utility.yul\":5270:5689   */\n      swap2\n      swap1\n      pop\n      jump\t// out\n        /* \"#utility.yul\":5695:5824   */\n    tag_62:\n        /* \"#utility.yul\":5729:5735   */\n      0x00\n        /* \"#utility.yul\":5756:5776   */\n      tag_140\n      tag_141\n      jump\t// in\n    tag_140:\n        /* \"#utility.yul\":5746:5776   */\n      swap1\n      pop\n        /* \"#utility.yul\":5785:5818   */\n      tag_142\n        /* \"#utility.yul\":5813:5817   */\n      dup3\n        /* \"#utility.yul\":5805:5811   */\n      dup3\n        /* \"#utility.yul\":5785:5818   */\n      tag_143\n      jump\t// in\n    tag_142:\n        /* \"#utility.yul\":5695:5824   */\n      swap2\n      swap1\n      pop\n      jump\t// out\n        /* \"#utility.yul\":5830:5905   */\n    tag_141:\n        /* \"#utility.yul\":5863:5869   */\n      0x00\n        /* \"#utility.yul\":5896:5898   */\n      0x40\n        /* \"#utility.yul\":5890:5899   */\n      mload\n        /* \"#utility.yul\":5880:5899   */\n      swap1\n      pop\n        /* \"#utility.yul\":5830:5905   */\n      swap1\n      jump\t// out\n        /* \"#utility.yul\":5911:6219   */\n    tag_61:\n        /* \"#utility.yul\":5973:5977   */\n      0x00\n        /* \"#utility.yul\":6063:6081   */\n      0xffffffffffffffff\n        /* \"#utility.yul\":6055:6061   */\n      dup3\n        /* \"#utility.yul\":6052:6082   */\n      gt\n        /* \"#utility.yul\":6049:6105   */\n      iszero\n      tag_146\n      jumpi\n        /* \"#utility.yul\":6085:6103   */\n      tag_147\n      tag_148\n      jump\t// in\n    tag_147:\n        /* \"#utility.yul\":6049:6105   */\n    tag_146:\n        /* \"#utility.yul\":6123:6152   */\n      tag_149\n        /* \"#utility.yul\":6145:6151   */\n      dup3\n        /* \"#utility.yul\":6123:6152   */\n      tag_112\n      jump\t// in\n    tag_149:\n        /* \"#utility.yul\":6115:6152   */\n      swap1\n      pop\n        /* \"#utility.yul\":6207:6211   */\n      0x20\n        /* \"#utility.yul\":6201:6205   */\n      dup2\n        /* \"#utility.yul\":6197:6212   */\n      add\n        /* \"#utility.yul\":6189:6212   */\n      swap1\n      pop\n        /* \"#utility.yul\":5911:6219   */\n      swap2\n      swap1\n      pop\n      jump\t// out\n        /* \"#utility.yul\":6225:6324   */\n    tag_106:\n        /* \"#utility.yul\":6277:6283   */\n      0x00\n        /* \"#utility.yul\":6311:6316   */\n      dup2\n        /* \"#utility.yul\":6305:6317   */\n      mload\n        /* \"#utility.yul\":6295:6317   */\n      swap1\n      pop\n        /* \"#utility.yul\":6225:6324   */\n      swap2\n      swap1\n      pop\n      jump\t// out\n        /* \"#utility.yul\":6330:6499   */\n    tag_108:\n        /* \"#utility.yul\":6414:6425   */\n      0x00\n        /* \"#utility.yul\":6448:6454   */\n      dup3\n        /* \"#utility.yul\":6443:6446   */\n      dup3\n        /* \"#utility.yul\":6436:6455   */\n      mstore\n        /* \"#utility.yul\":6488:6492   */\n      0x20\n        /* \"#utility.yul\":6483:6486   */\n      dup3\n        /* \"#utility.yul\":6479:6493   */\n      add\n        /* \"#utility.yul\":6464:6493   */\n      swap1\n      pop\n        /* \"#utility.yul\":6330:6499   */\n      swap3\n      swap2\n      pop\n      pop\n      jump\t// out\n        /* \"#utility.yul\":6505:6601   */\n    tag_102:\n        /* \"#utility.yul\":6542:6549   */\n      0x00\n        /* \"#utility.yul\":6571:6595   */\n      tag_153\n        /* \"#utility.yul\":6589:6594   */\n      dup3\n        /* \"#utility.yul\":6571:6595   */\n      tag_154\n      jump\t// in\n    tag_153:\n        /* \"#utility.yul\":6560:6595   */\n      swap1\n      pop\n        /* \"#utility.yul\":6505:6601   */\n      swap2\n      swap1\n      pop\n      jump\t// out\n        /* \"#utility.yul\":6607:6733   */\n    tag_154:\n        /* \"#utility.yul\":6644:6651   */\n      0x00\n        /* \"#utility.yul\":6684:6726   */\n      0xffffffffffffffffffffffffffffffffffffffff\n        /* \"#utility.yul\":6677:6682   */\n      dup3\n        /* \"#utility.yul\":6673:6727   */\n      and\n        /* \"#utility.yul\":6662:6727   */\n      swap1\n      pop\n        /* \"#utility.yul\":6607:6733   */\n      swap2\n      swap1\n      pop\n      jump\t// out\n        /* \"#utility.yul\":6739:6816   */\n    tag_126:\n        /* \"#utility.yul\":6776:6783   */\n      0x00\n        /* \"#utility.yul\":6805:6810   */\n      dup2\n        /* \"#utility.yul\":6794:6810   */\n      swap1\n      pop\n        /* \"#utility.yul\":6739:6816   */\n      swap2\n      swap1\n      pop\n      jump\t// out\n        /* \"#utility.yul\":6822:6976   */\n    tag_67:\n        /* \"#utility.yul\":6906:6912   */\n      dup3\n        /* \"#utility.yul\":6901:6904   */\n      dup2\n        /* \"#utility.yul\":6896:6899   */\n      dup4\n        /* \"#utility.yul\":6883:6913   */\n      calldatacopy\n        /* \"#utility.yul\":6968:6969   */\n      0x00\n        /* \"#utility.yul\":6959:6965   */\n      dup4\n        /* \"#utility.yul\":6954:6957   */\n      dup4\n        /* \"#utility.yul\":6950:6966   */\n      add\n        /* \"#utility.yul\":6943:6970   */\n      mstore\n        /* \"#utility.yul\":6822:6976   */\n      pop\n      pop\n      pop\n      jump\t// out\n        /* \"#utility.yul\":6982:7289   */\n    tag_110:\n        /* \"#utility.yul\":7050:7051   */\n      0x00\n        /* \"#utility.yul\":7060:7173   */\n    tag_159:\n        /* \"#utility.yul\":7074:7080   */\n      dup4\n        /* \"#utility.yul\":7071:7072   */\n      dup2\n        /* \"#utility.yul\":7068:7081   */\n      lt\n        /* \"#utility.yul\":7060:7173   */\n      iszero\n      tag_161\n      jumpi\n        /* \"#utility.yul\":7159:7160   */\n      dup1\n        /* \"#utility.yul\":7154:7157   */\n      dup3\n        /* \"#utility.yul\":7150:7161   */\n      add\n        /* \"#utility.yul\":7144:7162   */\n      mload\n        /* \"#utility.yul\":7140:7141   */\n      dup2\n        /* \"#utility.yul\":7135:7138   */\n      dup5\n        /* \"#utility.yul\":7131:7142   */\n      add\n        /* \"#utility.yul\":7124:7163   */\n      mstore\n        /* \"#utility.yul\":7096:7098   */\n      0x20\n        /* \"#utility.yul\":7093:7094   */\n      dup2\n        /* \"#utility.yul\":7089:7099   */\n      add\n        /* \"#utility.yul\":7084:7099   */\n      swap1\n      pop\n        /* \"#utility.yul\":7060:7173   */\n      jump(tag_159)\n    tag_161:\n        /* \"#utility.yul\":7191:7197   */\n      dup4\n        /* \"#utility.yul\":7188:7189   */\n      dup2\n        /* \"#utility.yul\":7185:7198   */\n      gt\n        /* \"#utility.yul\":7182:7283   */\n      iszero\n      tag_162\n      jumpi\n        /* \"#utility.yul\":7271:7272   */\n      0x00\n        /* \"#utility.yul\":7262:7268   */\n      dup5\n        /* \"#utility.yul\":7257:7260   */\n      dup5\n        /* \"#utility.yul\":7253:7269   */\n      add\n        /* \"#utility.yul\":7246:7273   */\n      mstore\n        /* \"#utility.yul\":7182:7283   */\n    tag_162:\n        /* \"#utility.yul\":7031:7289   */\n      pop\n        /* \"#utility.yul\":6982:7289   */\n      pop\n      pop\n      pop\n      jump\t// out\n        /* \"#utility.yul\":7295:7615   */\n    tag_41:\n        /* \"#utility.yul\":7339:7345   */\n      0x00\n        /* \"#utility.yul\":7376:7377   */\n      0x02\n        /* \"#utility.yul\":7370:7374   */\n      dup3\n        /* \"#utility.yul\":7366:7378   */\n      div\n        /* \"#utility.yul\":7356:7378   */\n      swap1\n      pop\n        /* \"#utility.yul\":7423:7424   */\n      0x01\n        /* \"#utility.yul\":7417:7421   */\n      dup3\n        /* \"#utility.yul\":7413:7425   */\n      and\n        /* \"#utility.yul\":7444:7462   */\n      dup1\n        /* \"#utility.yul\":7434:7515   */\n      tag_164\n      jumpi\n        /* \"#utility.yul\":7500:7504   */\n      0x7f\n        /* \"#utility.yul\":7492:7498   */\n      dup3\n        /* \"#utility.yul\":7488:7505   */\n      and\n        /* \"#utility.yul\":7478:7505   */\n      swap2\n      pop\n        /* \"#utility.yul\":7434:7515   */\n    tag_164:\n        /* \"#utility.yul\":7562:7564   */\n      0x20\n        /* \"#utility.yul\":7554:7560   */\n      dup3\n        /* \"#utility.yul\":7551:7565   */\n      lt\n        /* \"#utility.yul\":7531:7549   */\n      dup2\n        /* \"#utility.yul\":7528:7566   */\n      eq\n        /* \"#utility.yul\":7525:7609   */\n      iszero\n      tag_165\n      jumpi\n        /* \"#utility.yul\":7581:7599   */\n      tag_166\n      tag_167\n      jump\t// in\n    tag_166:\n        /* \"#utility.yul\":7525:7609   */\n    tag_165:\n        /* \"#utility.yul\":7346:7615   */\n      pop\n        /* \"#utility.yul\":7295:7615   */\n      swap2\n      swap1\n      pop\n      jump\t// out\n        /* \"#utility.yul\":7621:7902   */\n    tag_143:\n        /* \"#utility.yul\":7704:7731   */\n      tag_169\n        /* \"#utility.yul\":7726:7730   */\n      dup3\n        /* \"#utility.yul\":7704:7731   */\n      tag_112\n      jump\t// in\n    tag_169:\n        /* \"#utility.yul\":7696:7702   */\n      dup2\n        /* \"#utility.yul\":7692:7732   */\n      add\n        /* \"#utility.yul\":7834:7840   */\n      dup2\n        /* \"#utility.yul\":7822:7832   */\n      dup2\n        /* \"#utility.yul\":7819:7841   */\n      lt\n        /* \"#utility.yul\":7798:7816   */\n      0xffffffffffffffff\n        /* \"#utility.yul\":7786:7796   */\n      dup3\n        /* \"#utility.yul\":7783:7817   */\n      gt\n        /* \"#utility.yul\":7780:7842   */\n      or\n        /* \"#utility.yul\":7777:7865   */\n      iszero\n      tag_170\n      jumpi\n        /* \"#utility.yul\":7845:7863   */\n      tag_171\n      tag_148\n      jump\t// in\n    tag_171:\n        /* \"#utility.yul\":7777:7865   */\n    tag_170:\n        /* \"#utility.yul\":7885:7895   */\n      dup1\n        /* \"#utility.yul\":7881:7883   */\n      0x40\n        /* \"#utility.yul\":7874:7896   */\n      mstore\n        /* \"#utility.yul\":7664:7902   */\n      pop\n        /* \"#utility.yul\":7621:7902   */\n      pop\n      pop\n      jump\t// out\n        /* \"#utility.yul\":7908:8088   */\n    tag_167:\n        /* \"#utility.yul\":7956:8033   */\n      0x4e487b7100000000000000000000000000000000000000000000000000000000\n        /* \"#utility.yul\":7953:7954   */\n      0x00\n        /* \"#utility.yul\":7946:8034   */\n      mstore\n        /* \"#utility.yul\":8053:8057   */\n      0x22\n        /* \"#utility.yul\":8050:8051   */\n      0x04\n        /* \"#utility.yul\":8043:8058   */\n      mstore\n        /* \"#utility.yul\":8077:8081   */\n      0x24\n        /* \"#utility.yul\":8074:8075   */\n      0x00\n        /* \"#utility.yul\":8067:8082   */\n      revert\n        /* \"#utility.yul\":8094:8274   */\n    tag_148:\n        /* \"#utility.yul\":8142:8219   */\n      0x4e487b7100000000000000000000000000000000000000000000000000000000\n        /* \"#utility.yul\":8139:8140   */\n      0x00\n        /* \"#utility.yul\":8132:8220   */\n      mstore\n        /* \"#utility.yul\":8239:8243   */\n      0x41\n        /* \"#utility.yul\":8236:8237   */\n      0x04\n        /* \"#utility.yul\":8229:8244   */\n      mstore\n        /* \"#utility.yul\":8263:8267   */\n      0x24\n        /* \"#utility.yul\":8260:8261   */\n      0x00\n        /* \"#utility.yul\":8253:8268   */\n      revert\n        /* \"#utility.yul\":8280:8397   */\n    tag_76:\n        /* \"#utility.yul\":8389:8390   */\n      0x00\n        /* \"#utility.yul\":8386:8387   */\n      dup1\n        /* \"#utility.yul\":8379:8391   */\n      revert\n        /* \"#utility.yul\":8403:8520   */\n    tag_65:\n        /* \"#utility.yul\":8512:8513   */\n      0x00\n        /* \"#utility.yul\":8509:8510   */\n      dup1\n        /* \"#utility.yul\":8502:8514   */\n      revert\n        /* \"#utility.yul\":8526:8643   */\n    tag_92:\n        /* \"#utility.yul\":8635:8636   */\n      0x00\n        /* \"#utility.yul\":8632:8633   */\n      dup1\n        /* \"#utility.yul\":8625:8637   */\n      revert\n        /* \"#utility.yul\":8649:8766   */\n    tag_85:\n        /* \"#utility.yul\":8758:8759   */\n      0x00\n        /* \"#utility.yul\":8755:8756   */\n      dup1\n        /* \"#utility.yul\":8748:8760   */\n      revert\n        /* \"#utility.yul\":8772:8874   */\n    tag_112:\n        /* \"#utility.yul\":8813:8819   */\n      0x00\n        /* \"#utility.yul\":8864:8866   */\n      0x1f\n        /* \"#utility.yul\":8860:8867   */\n      not\n        /* \"#utility.yul\":8855:8857   */\n      0x1f\n        /* \"#utility.yul\":8848:8853   */\n      dup4\n        /* \"#utility.yul\":8844:8858   */\n      add\n        /* \"#utility.yul\":8840:8868   */\n      and\n        /* \"#utility.yul\":8830:8868   */\n      swap1\n      pop\n        /* \"#utility.yul\":8772:8874   */\n      swap2\n      swap1\n      pop\n      jump\t// out\n        /* \"#utility.yul\":8880:9044   */\n    tag_117:\n        /* \"#utility.yul\":9020:9036   */\n      0x4163636573732064656e6965642e000000000000000000000000000000000000\n        /* \"#utility.yul\":9016:9017   */\n      0x00\n        /* \"#utility.yul\":9008:9014   */\n      dup3\n        /* \"#utility.yul\":9004:9018   */\n      add\n        /* \"#utility.yul\":8997:9037   */\n      mstore\n        /* \"#utility.yul\":8880:9044   */\n      pop\n      jump\t// out\n        /* \"#utility.yul\":9050:9272   */\n    tag_122:\n        /* \"#utility.yul\":9190:9224   */\n      0x4163636573732064656e6965642e204d757374206265203138206f72206f6c64\n        /* \"#utility.yul\":9186:9187   */\n      0x00\n        /* \"#utility.yul\":9178:9184   */\n      dup3\n        /* \"#utility.yul\":9174:9188   */\n      add\n        /* \"#utility.yul\":9167:9225   */\n      mstore\n        /* \"#utility.yul\":9259:9264   */\n      0x65722e0000000000000000000000000000000000000000000000000000000000\n        /* \"#utility.yul\":9254:9256   */\n      0x20\n        /* \"#utility.yul\":9246:9252   */\n      dup3\n        /* \"#utility.yul\":9242:9257   */\n      add\n        /* \"#utility.yul\":9235:9265   */\n      mstore\n        /* \"#utility.yul\":9050:9272   */\n      pop\n      jump\t// out\n        /* \"#utility.yul\":9278:9400   */\n    tag_71:\n        /* \"#utility.yul\":9351:9375   */\n      tag_182\n        /* \"#utility.yul\":9369:9374   */\n      dup2\n        /* \"#utility.yul\":9351:9375   */\n      tag_102\n      jump\t// in\n    tag_182:\n        /* \"#utility.yul\":9344:9349   */\n      dup2\n        /* \"#utility.yul\":9341:9376   */\n      eq\n        /* \"#utility.yul\":9331:9394   */\n      tag_183\n      jumpi\n        /* \"#utility.yul\":9390:9391   */\n      0x00\n        /* \"#utility.yul\":9387:9388   */\n      dup1\n        /* \"#utility.yul\":9380:9392   */\n      revert\n        /* \"#utility.yul\":9331:9394   */\n    tag_183:\n        /* \"#utility.yul\":9278:9400   */\n      pop\n      jump\t// out\n        /* \"#utility.yul\":9406:9528   */\n    tag_81:\n        /* \"#utility.yul\":9479:9503   */\n      tag_185\n        /* \"#utility.yul\":9497:9502   */\n      dup2\n        /* \"#utility.yul\":9479:9503   */\n      tag_126\n      jump\t// in\n    tag_185:\n        /* \"#utility.yul\":9472:9477   */\n      dup2\n        /* \"#utility.yul\":9469:9504   */\n      eq\n        /* \"#utility.yul\":9459:9522   */\n      tag_186\n      jumpi\n        /* \"#utility.yul\":9518:9519   */\n      0x00\n        /* \"#utility.yul\":9515:9516   */\n      dup1\n        /* \"#utility.yul\":9508:9520   */\n      revert\n        /* \"#utility.yul\":9459:9522   */\n    tag_186:\n        /* \"#utility.yul\":9406:9528   */\n      pop\n      jump\t// out\n\n    auxdata: 0xa2646970667358221220de3f2c6f950e3adb9ef3c08c7281b57cc91b059c2c7a367f3e6eccf5edf9c79c64736f6c63430008070033\n}\n",
				"bytecode": {
					"linkReferences": {},
					"object": "60806040523480156200001157600080fd5b5060405180608001604052806040518060400160405280600581526020017f416c696365000000000000000000000000000000000000000000000000000000815250815260200160198152602001600a67ffffffffffffffff8111156200007d576200007c62000309565b5b604051908082528060200260200182016040528015620000ac5781602001602082028036833780820191505090505b5081526020013373ffffffffffffffffffffffffffffffffffffffff168152506000803373ffffffffffffffffffffffffffffffffffffffff1673ffffffffffffffffffffffffffffffffffffffff168152602001908152602001600020600082015181600001908051906020019062000128929190620001a2565b506020820151816001015560408201518160020190805190602001906200015192919062000233565b5060608201518160030160006101000a81548173ffffffffffffffffffffffffffffffffffffffff021916908373ffffffffffffffffffffffffffffffffffffffff16021790555090505062000338565b828054620001b090620002a4565b90600052602060002090601f016020900481019282620001d4576000855562000220565b82601f10620001ef57805160ff191683800117855562000220565b8280016001018555821562000220579182015b828111156200021f57825182559160200191906001019062000202565b5b5090506200022f919062000285565b5090565b82805482825590600052602060002090810192821562000272579160200282015b828111156200027157825182559160200191906001019062000254565b5b50905062000281919062000285565b5090565b5b80821115620002a057600081600090555060010162000286565b5090565b60006002820490506001821680620002bd57607f821691505b60208210811415620002d457620002d3620002da565b5b50919050565b7f4e487b7100000000000000000000000000000000000000000000000000000000600052602260045260246000fd5b7f4e487b7100000000000000000000000000000000000000000000000000000000600052604160045260246000fd5b610b0080620003486000396000f3fe608060405234801561001057600080fd5b506004361061004c5760003560e01c806312786d7e14610051578063176f964c1461005b5780632bf9866f14610077578063a87430ba14610093575b600080fd5b6100596100c5565b005b610075600480360381019061007091906106c8565b61014c565b005b610091600480360381019061008c919061066c565b610286565b005b6100ad60048036038101906100a8919061063f565b610430565b6040516100bc939291906107d0565b60405180910390f35b60126000803373ffffffffffffffffffffffffffffffffffffffff1673ffffffffffffffffffffffffffffffffffffffff16815260200190815260200160002060010154101561014a576040517f08c379a00000000000000000000000000000000000000000000000000000000081526004016101419061082e565b60405180910390fd5b565b6000803373ffffffffffffffffffffffffffffffffffffffff1673ffffffffffffffffffffffffffffffffffffffff16815260200190815260200160002060030160009054906101000a900473ffffffffffffffffffffffffffffffffffffffff1673ffffffffffffffffffffffffffffffffffffffff163373ffffffffffffffffffffffffffffffffffffffff161461021b576040517f08c379a00000000000000000000000000000000000000000000000000000000081526004016102129061080e565b60405180910390fd5b6000803373ffffffffffffffffffffffffffffffffffffffff1673ffffffffffffffffffffffffffffffffffffffff16815260200190815260200160002060020181908060018154018082558091505060019003906000526020600020016000909190919091505550565b6000803373ffffffffffffffffffffffffffffffffffffffff1673ffffffffffffffffffffffffffffffffffffffff16815260200190815260200160002060030160009054906101000a900473ffffffffffffffffffffffffffffffffffffffff1673ffffffffffffffffffffffffffffffffffffffff163373ffffffffffffffffffffffffffffffffffffffff1614610355576040517f08c379a000000000000000000000000000000000000000000000000000000000815260040161034c9061080e565b60405180910390fd5b816000803373ffffffffffffffffffffffffffffffffffffffff1673ffffffffffffffffffffffffffffffffffffffff16815260200190815260200160002060000190805190602001906103aa929190610502565b50806000803373ffffffffffffffffffffffffffffffffffffffff1673ffffffffffffffffffffffffffffffffffffffff168152602001908152602001600020600101819055507f329d359cf9f4051167ad17cee4f7c13e33128369772783e288c19fcdd1384fed33838360405161042493929190610792565b60405180910390a15050565b60006020528060005260406000206000915090508060000180546104539061093e565b80601f016020809104026020016040519081016040528092919081815260200182805461047f9061093e565b80156104cc5780601f106104a1576101008083540402835291602001916104cc565b820191906000526020600020905b8154815290600101906020018083116104af57829003601f168201915b5050505050908060010154908060030160009054906101000a900473ffffffffffffffffffffffffffffffffffffffff16905083565b82805461050e9061093e565b90600052602060002090601f0160209004810192826105305760008555610577565b82601f1061054957805160ff1916838001178555610577565b82800160010185558215610577579182015b8281111561057657825182559160200191906001019061055b565b5b5090506105849190610588565b5090565b5b808211156105a1576000816000905550600101610589565b5090565b60006105b86105b384610873565b61084e565b9050828152602081018484840111156105d4576105d3610a04565b5b6105df8482856108fc565b509392505050565b6000813590506105f681610a9c565b92915050565b600082601f830112610611576106106109ff565b5b81356106218482602086016105a5565b91505092915050565b60008135905061063981610ab3565b92915050565b60006020828403121561065557610654610a0e565b5b6000610663848285016105e7565b91505092915050565b6000806040838503121561068357610682610a0e565b5b600083013567ffffffffffffffff8111156106a1576106a0610a09565b5b6106ad858286016105fc565b92505060206106be8582860161062a565b9150509250929050565b6000602082840312156106de576106dd610a0e565b5b60006106ec8482850161062a565b91505092915050565b6106fe816108c0565b82525050565b600061070f826108a4565b61071981856108af565b935061072981856020860161090b565b61073281610a13565b840191505092915050565b600061074a600e836108af565b915061075582610a24565b602082019050919050565b600061076d6023836108af565b915061077882610a4d565b604082019050919050565b61078c816108f2565b82525050565b60006060820190506107a760008301866106f5565b81810360208301526107b98185610704565b90506107c86040830184610783565b949350505050565b600060608201905081810360008301526107ea8186610704565b90506107f96020830185610783565b61080660408301846106f5565b949350505050565b600060208201905081810360008301526108278161073d565b9050919050565b6000602082019050818103600083015261084781610760565b9050919050565b6000610858610869565b90506108648282610970565b919050565b6000604051905090565b600067ffffffffffffffff82111561088e5761088d6109d0565b5b61089782610a13565b9050602081019050919050565b600081519050919050565b600082825260208201905092915050565b60006108cb826108d2565b9050919050565b600073ffffffffffffffffffffffffffffffffffffffff82169050919050565b6000819050919050565b82818337600083830152505050565b60005b8381101561092957808201518184015260208101905061090e565b83811115610938576000848401525b50505050565b6000600282049050600182168061095657607f821691505b6020821081141561096a576109696109a1565b5b50919050565b61097982610a13565b810181811067ffffffffffffffff82111715610998576109976109d0565b5b80604052505050565b7f4e487b7100000000000000000000000000000000000000000000000000000000600052602260045260246000fd5b7f4e487b7100000000000000000000000000000000000000000000000000000000600052604160045260246000fd5b600080fd5b600080fd5b600080fd5b600080fd5b6000601f19601f8301169050919050565b7f4163636573732064656e6965642e000000000000000000000000000000000000600082015250565b7f4163636573732064656e6965642e204d757374206265203138206f72206f6c6460008201527f65722e0000000000000000000000000000000000000000000000000000000000602082015250565b610aa5816108c0565b8114610ab057600080fd5b50565b610abc816108f2565b8114610ac757600080fd5b5056fea2646970667358221220de3f2c6f950e3adb9ef3c08c7281b57cc91b059c2c7a367f3e6eccf5edf9c79c64736f6c63430008070033",
					"opcodes": "PUSH1 0x80 PUSH1 0x40 MSTORE CALLVALUE DUP1 ISZERO PUSH3 0x11 JUMPI PUSH1 0x0 DUP1 REVERT JUMPDEST POP PUSH1 0x40 MLOAD DUP1 PUSH1 0x80 ADD PUSH1 0x40 MSTORE DUP1 PUSH1 0x40 MLOAD DUP1 PUSH1 0x40 ADD PUSH1 0x40 MSTORE DUP1 PUSH1 0x5 DUP2 MSTORE PUSH1 0x20 ADD PUSH32 0x416C696365000000000000000000000000000000000000000000000000000000 DUP2 MSTORE POP DUP2 MSTORE PUSH1 0x20 ADD PUSH1 0x19 DUP2 MSTORE PUSH1 0x20 ADD PUSH1 0xA PUSH8 0xFFFFFFFFFFFFFFFF DUP2 GT ISZERO PUSH3 0x7D JUMPI PUSH3 0x7C PUSH3 0x309 JUMP JUMPDEST JUMPDEST PUSH1 0x40 MLOAD SWAP1 DUP1 DUP3 MSTORE DUP1 PUSH1 0x20 MUL PUSH1 0x20 ADD DUP3 ADD PUSH1 0x40 MSTORE DUP1 ISZERO PUSH3 0xAC JUMPI DUP2 PUSH1 0x20 ADD PUSH1 0x20 DUP3 MUL DUP1 CALLDATASIZE DUP4 CALLDATACOPY DUP1 DUP3 ADD SWAP2 POP POP SWAP1 POP JUMPDEST POP DUP2 MSTORE PUSH1 0x20 ADD CALLER PUSH20 0xFFFFFFFFFFFFFFFFFFFFFFFFFFFFFFFFFFFFFFFF AND DUP2 MSTORE POP PUSH1 0x0 DUP1 CALLER PUSH20 0xFFFFFFFFFFFFFFFFFFFFFFFFFFFFFFFFFFFFFFFF AND PUSH20 0xFFFFFFFFFFFFFFFFFFFFFFFFFFFFFFFFFFFFFFFF AND DUP2 MSTORE PUSH1 0x20 ADD SWAP1 DUP2 MSTORE PUSH1 0x20 ADD PUSH1 0x0 KECCAK256 PUSH1 0x0 DUP3 ADD MLOAD DUP2 PUSH1 0x0 ADD SWAP1 DUP1 MLOAD SWAP1 PUSH1 0x20 ADD SWAP1 PUSH3 0x128 SWAP3 SWAP2 SWAP1 PUSH3 0x1A2 JUMP JUMPDEST POP PUSH1 0x20 DUP3 ADD MLOAD DUP2 PUSH1 0x1 ADD SSTORE PUSH1 0x40 DUP3 ADD MLOAD DUP2 PUSH1 0x2 ADD SWAP1 DUP1 MLOAD SWAP1 PUSH1 0x20 ADD SWAP1 PUSH3 0x151 SWAP3 SWAP2 SWAP1 PUSH3 0x233 JUMP JUMPDEST POP PUSH1 0x60 DUP3 ADD MLOAD DUP2 PUSH1 0x3 ADD PUSH1 0x0 PUSH2 0x100 EXP DUP2 SLOAD DUP2 PUSH20 0xFFFFFFFFFFFFFFFFFFFFFFFFFFFFFFFFFFFFFFFF MUL NOT AND SWAP1 DUP4 PUSH20 0xFFFFFFFFFFFFFFFFFFFFFFFFFFFFFFFFFFFFFFFF AND MUL OR SWAP1 SSTORE POP SWAP1 POP POP PUSH3 0x338 JUMP JUMPDEST DUP3 DUP1 SLOAD PUSH3 0x1B0 SWAP1 PUSH3 0x2A4 JUMP JUMPDEST SWAP1 PUSH1 0x0 MSTORE PUSH1 0x20 PUSH1 0x0 KECCAK256 SWAP1 PUSH1 0x1F ADD PUSH1 0x20 SWAP1 DIV DUP2 ADD SWAP3 DUP3 PUSH3 0x1D4 JUMPI PUSH1 0x0 DUP6 SSTORE PUSH3 0x220 JUMP JUMPDEST DUP3 PUSH1 0x1F LT PUSH3 0x1EF JUMPI DUP1 MLOAD PUSH1 0xFF NOT AND DUP4 DUP1 ADD OR DUP6 SSTORE PUSH3 0x220 JUMP JUMPDEST DUP3 DUP1 ADD PUSH1 0x1 ADD DUP6 SSTORE DUP3 ISZERO PUSH3 0x220 JUMPI SWAP2 DUP3 ADD JUMPDEST DUP3 DUP2 GT ISZERO PUSH3 0x21F JUMPI DUP3 MLOAD DUP3 SSTORE SWAP2 PUSH1 0x20 ADD SWAP2 SWAP1 PUSH1 0x1 ADD SWAP1 PUSH3 0x202 JUMP JUMPDEST JUMPDEST POP SWAP1 POP PUSH3 0x22F SWAP2 SWAP1 PUSH3 0x285 JUMP JUMPDEST POP SWAP1 JUMP JUMPDEST DUP3 DUP1 SLOAD DUP3 DUP3 SSTORE SWAP1 PUSH1 0x0 MSTORE PUSH1 0x20 PUSH1 0x0 KECCAK256 SWAP1 DUP2 ADD SWAP3 DUP3 ISZERO PUSH3 0x272 JUMPI SWAP2 PUSH1 0x20 MUL DUP3 ADD JUMPDEST DUP3 DUP2 GT ISZERO PUSH3 0x271 JUMPI DUP3 MLOAD DUP3 SSTORE SWAP2 PUSH1 0x20 ADD SWAP2 SWAP1 PUSH1 0x1 ADD SWAP1 PUSH3 0x254 JUMP JUMPDEST JUMPDEST POP SWAP1 POP PUSH3 0x281 SWAP2 SWAP1 PUSH3 0x285 JUMP JUMPDEST POP SWAP1 JUMP JUMPDEST JUMPDEST DUP1 DUP3 GT ISZERO PUSH3 0x2A0 JUMPI PUSH1 0x0 DUP2 PUSH1 0x0 SWAP1 SSTORE POP PUSH1 0x1 ADD PUSH3 0x286 JUMP JUMPDEST POP SWAP1 JUMP JUMPDEST PUSH1 0x0 PUSH1 0x2 DUP3 DIV SWAP1 POP PUSH1 0x1 DUP3 AND DUP1 PUSH3 0x2BD JUMPI PUSH1 0x7F DUP3 AND SWAP2 POP JUMPDEST PUSH1 0x20 DUP3 LT DUP2 EQ ISZERO PUSH3 0x2D4 JUMPI PUSH3 0x2D3 PUSH3 0x2DA JUMP JUMPDEST JUMPDEST POP SWAP2 SWAP1 POP JUMP JUMPDEST PUSH32 0x4E487B7100000000000000000000000000000000000000000000000000000000 PUSH1 0x0 MSTORE PUSH1 0x22 PUSH1 0x4 MSTORE PUSH1 0x24 PUSH1 0x0 REVERT JUMPDEST PUSH32 0x4E487B7100000000000000000000000000000000000000000000000000000000 PUSH1 0x0 MSTORE PUSH1 0x41 PUSH1 0x4 MSTORE PUSH1 0x24 PUSH1 0x0 REVERT JUMPDEST PUSH2 0xB00 DUP1 PUSH3 0x348 PUSH1 0x0 CODECOPY PUSH1 0x0 RETURN INVALID PUSH1 0x80 PUSH1 0x40 MSTORE CALLVALUE DUP1 ISZERO PUSH2 0x10 JUMPI PUSH1 0x0 DUP1 REVERT JUMPDEST POP PUSH1 0x4 CALLDATASIZE LT PUSH2 0x4C JUMPI PUSH1 0x0 CALLDATALOAD PUSH1 0xE0 SHR DUP1 PUSH4 0x12786D7E EQ PUSH2 0x51 JUMPI DUP1 PUSH4 0x176F964C EQ PUSH2 0x5B JUMPI DUP1 PUSH4 0x2BF9866F EQ PUSH2 0x77 JUMPI DUP1 PUSH4 0xA87430BA EQ PUSH2 0x93 JUMPI JUMPDEST PUSH1 0x0 DUP1 REVERT JUMPDEST PUSH2 0x59 PUSH2 0xC5 JUMP JUMPDEST STOP JUMPDEST PUSH2 0x75 PUSH1 0x4 DUP1 CALLDATASIZE SUB DUP2 ADD SWAP1 PUSH2 0x70 SWAP2 SWAP1 PUSH2 0x6C8 JUMP JUMPDEST PUSH2 0x14C JUMP JUMPDEST STOP JUMPDEST PUSH2 0x91 PUSH1 0x4 DUP1 CALLDATASIZE SUB DUP2 ADD SWAP1 PUSH2 0x8C SWAP2 SWAP1 PUSH2 0x66C JUMP JUMPDEST PUSH2 0x286 JUMP JUMPDEST STOP JUMPDEST PUSH2 0xAD PUSH1 0x4 DUP1 CALLDATASIZE SUB DUP2 ADD SWAP1 PUSH2 0xA8 SWAP2 SWAP1 PUSH2 0x63F JUMP JUMPDEST PUSH2 0x430 JUMP JUMPDEST PUSH1 0x40 MLOAD PUSH2 0xBC SWAP4 SWAP3 SWAP2 SWAP1 PUSH2 0x7D0 JUMP JUMPDEST PUSH1 0x40 MLOAD DUP1 SWAP2 SUB SWAP1 RETURN JUMPDEST PUSH1 0x12 PUSH1 0x0 DUP1 CALLER PUSH20 0xFFFFFFFFFFFFFFFFFFFFFFFFFFFFFFFFFFFFFFFF AND PUSH20 0xFFFFFFFFFFFFFFFFFFFFFFFFFFFFFFFFFFFFFFFF AND DUP2 MSTORE PUSH1 0x20 ADD SWAP1 DUP2 MSTORE PUSH1 0x20 ADD PUSH1 0x0 KECCAK256 PUSH1 0x1 ADD SLOAD LT ISZERO PUSH2 0x14A JUMPI PUSH1 0x40 MLOAD PUSH32 0x8C379A000000000000000000000000000000000000000000000000000000000 DUP2 MSTORE PUSH1 0x4 ADD PUSH2 0x141 SWAP1 PUSH2 0x82E JUMP JUMPDEST PUSH1 0x40 MLOAD DUP1 SWAP2 SUB SWAP1 REVERT JUMPDEST JUMP JUMPDEST PUSH1 0x0 DUP1 CALLER PUSH20 0xFFFFFFFFFFFFFFFFFFFFFFFFFFFFFFFFFFFFFFFF AND PUSH20 0xFFFFFFFFFFFFFFFFFFFFFFFFFFFFFFFFFFFFFFFF AND DUP2 MSTORE PUSH1 0x20 ADD SWAP1 DUP2 MSTORE PUSH1 0x20 ADD PUSH1 0x0 KECCAK256 PUSH1 0x3 ADD PUSH1 0x0 SWAP1 SLOAD SWAP1 PUSH2 0x100 EXP SWAP1 DIV PUSH20 0xFFFFFFFFFFFFFFFFFFFFFFFFFFFFFFFFFFFFFFFF AND PUSH20 0xFFFFFFFFFFFFFFFFFFFFFFFFFFFFFFFFFFFFFFFF AND CALLER PUSH20 0xFFFFFFFFFFFFFFFFFFFFFFFFFFFFFFFFFFFFFFFF AND EQ PUSH2 0x21B JUMPI PUSH1 0x40 MLOAD PUSH32 0x8C379A000000000000000000000000000000000000000000000000000000000 DUP2 MSTORE PUSH1 0x4 ADD PUSH2 0x212 SWAP1 PUSH2 0x80E JUMP JUMPDEST PUSH1 0x40 MLOAD DUP1 SWAP2 SUB SWAP1 REVERT JUMPDEST PUSH1 0x0 DUP1 CALLER PUSH20 0xFFFFFFFFFFFFFFFFFFFFFFFFFFFFFFFFFFFFFFFF AND PUSH20 0xFFFFFFFFFFFFFFFFFFFFFFFFFFFFFFFFFFFFFFFF AND DUP2 MSTORE PUSH1 0x20 ADD SWAP1 DUP2 MSTORE PUSH1 0x20 ADD PUSH1 0x0 KECCAK256 PUSH1 0x2 ADD DUP2 SWAP1 DUP1 PUSH1 0x1 DUP2 SLOAD ADD DUP1 DUP3 SSTORE DUP1 SWAP2 POP POP PUSH1 0x1 SWAP1 SUB SWAP1 PUSH1 0x0 MSTORE PUSH1 0x20 PUSH1 0x0 KECCAK256 ADD PUSH1 0x0 SWAP1 SWAP2 SWAP1 SWAP2 SWAP1 SWAP2 POP SSTORE POP JUMP JUMPDEST PUSH1 0x0 DUP1 CALLER PUSH20 0xFFFFFFFFFFFFFFFFFFFFFFFFFFFFFFFFFFFFFFFF AND PUSH20 0xFFFFFFFFFFFFFFFFFFFFFFFFFFFFFFFFFFFFFFFF AND DUP2 MSTORE PUSH1 0x20 ADD SWAP1 DUP2 MSTORE PUSH1 0x20 ADD PUSH1 0x0 KECCAK256 PUSH1 0x3 ADD PUSH1 0x0 SWAP1 SLOAD SWAP1 PUSH2 0x100 EXP SWAP1 DIV PUSH20 0xFFFFFFFFFFFFFFFFFFFFFFFFFFFFFFFFFFFFFFFF AND PUSH20 0xFFFFFFFFFFFFFFFFFFFFFFFFFFFFFFFFFFFFFFFF AND CALLER PUSH20 0xFFFFFFFFFFFFFFFFFFFFFFFFFFFFFFFFFFFFFFFF AND EQ PUSH2 0x355 JUMPI PUSH1 0x40 MLOAD PUSH32 0x8C379A000000000000000000000000000000000000000000000000000000000 DUP2 MSTORE PUSH1 0x4 ADD PUSH2 0x34C SWAP1 PUSH2 0x80E JUMP JUMPDEST PUSH1 0x40 MLOAD DUP1 SWAP2 SUB SWAP1 REVERT JUMPDEST DUP2 PUSH1 0x0 DUP1 CALLER PUSH20 0xFFFFFFFFFFFFFFFFFFFFFFFFFFFFFFFFFFFFFFFF AND PUSH20 0xFFFFFFFFFFFFFFFFFFFFFFFFFFFFFFFFFFFFFFFF AND DUP2 MSTORE PUSH1 0x20 ADD SWAP1 DUP2 MSTORE PUSH1 0x20 ADD PUSH1 0x0 KECCAK256 PUSH1 0x0 ADD SWAP1 DUP1 MLOAD SWAP1 PUSH1 0x20 ADD SWAP1 PUSH2 0x3AA SWAP3 SWAP2 SWAP1 PUSH2 0x502 JUMP JUMPDEST POP DUP1 PUSH1 0x0 DUP1 CALLER PUSH20 0xFFFFFFFFFFFFFFFFFFFFFFFFFFFFFFFFFFFFFFFF AND PUSH20 0xFFFFFFFFFFFFFFFFFFFFFFFFFFFFFFFFFFFFFFFF AND DUP2 MSTORE PUSH1 0x20 ADD SWAP1 DUP2 MSTORE PUSH1 0x20 ADD PUSH1 0x0 KECCAK256 PUSH1 0x1 ADD DUP2 SWAP1 SSTORE POP PUSH32 0x329D359CF9F4051167AD17CEE4F7C13E33128369772783E288C19FCDD1384FED CALLER DUP4 DUP4 PUSH1 0x40 MLOAD PUSH2 0x424 SWAP4 SWAP3 SWAP2 SWAP1 PUSH2 0x792 JUMP JUMPDEST PUSH1 0x40 MLOAD DUP1 SWAP2 SUB SWAP1 LOG1 POP POP JUMP JUMPDEST PUSH1 0x0 PUSH1 0x20 MSTORE DUP1 PUSH1 0x0 MSTORE PUSH1 0x40 PUSH1 0x0 KECCAK256 PUSH1 0x0 SWAP2 POP SWAP1 POP DUP1 PUSH1 0x0 ADD DUP1 SLOAD PUSH2 0x453 SWAP1 PUSH2 0x93E JUMP JUMPDEST DUP1 PUSH1 0x1F ADD PUSH1 0x20 DUP1 SWAP2 DIV MUL PUSH1 0x20 ADD PUSH1 0x40 MLOAD SWAP1 DUP2 ADD PUSH1 0x40 MSTORE DUP1 SWAP3 SWAP2 SWAP1 DUP2 DUP2 MSTORE PUSH1 0x20 ADD DUP3 DUP1 SLOAD PUSH2 0x47F SWAP1 PUSH2 0x93E JUMP JUMPDEST DUP1 ISZERO PUSH2 0x4CC JUMPI DUP1 PUSH1 0x1F LT PUSH2 0x4A1 JUMPI PUSH2 0x100 DUP1 DUP4 SLOAD DIV MUL DUP4 MSTORE SWAP2 PUSH1 0x20 ADD SWAP2 PUSH2 0x4CC JUMP JUMPDEST DUP3 ADD SWAP2 SWAP1 PUSH1 0x0 MSTORE PUSH1 0x20 PUSH1 0x0 KECCAK256 SWAP1 JUMPDEST DUP2 SLOAD DUP2 MSTORE SWAP1 PUSH1 0x1 ADD SWAP1 PUSH1 0x20 ADD DUP1 DUP4 GT PUSH2 0x4AF JUMPI DUP3 SWAP1 SUB PUSH1 0x1F AND DUP3 ADD SWAP2 JUMPDEST POP POP POP POP POP SWAP1 DUP1 PUSH1 0x1 ADD SLOAD SWAP1 DUP1 PUSH1 0x3 ADD PUSH1 0x0 SWAP1 SLOAD SWAP1 PUSH2 0x100 EXP SWAP1 DIV PUSH20 0xFFFFFFFFFFFFFFFFFFFFFFFFFFFFFFFFFFFFFFFF AND SWAP1 POP DUP4 JUMP JUMPDEST DUP3 DUP1 SLOAD PUSH2 0x50E SWAP1 PUSH2 0x93E JUMP JUMPDEST SWAP1 PUSH1 0x0 MSTORE PUSH1 0x20 PUSH1 0x0 KECCAK256 SWAP1 PUSH1 0x1F ADD PUSH1 0x20 SWAP1 DIV DUP2 ADD SWAP3 DUP3 PUSH2 0x530 JUMPI PUSH1 0x0 DUP6 SSTORE PUSH2 0x577 JUMP JUMPDEST DUP3 PUSH1 0x1F LT PUSH2 0x549 JUMPI DUP1 MLOAD PUSH1 0xFF NOT AND DUP4 DUP1 ADD OR DUP6 SSTORE PUSH2 0x577 JUMP JUMPDEST DUP3 DUP1 ADD PUSH1 0x1 ADD DUP6 SSTORE DUP3 ISZERO PUSH2 0x577 JUMPI SWAP2 DUP3 ADD JUMPDEST DUP3 DUP2 GT ISZERO PUSH2 0x576 JUMPI DUP3 MLOAD DUP3 SSTORE SWAP2 PUSH1 0x20 ADD SWAP2 SWAP1 PUSH1 0x1 ADD SWAP1 PUSH2 0x55B JUMP JUMPDEST JUMPDEST POP SWAP1 POP PUSH2 0x584 SWAP2 SWAP1 PUSH2 0x588 JUMP JUMPDEST POP SWAP1 JUMP JUMPDEST JUMPDEST DUP1 DUP3 GT ISZERO PUSH2 0x5A1 JUMPI PUSH1 0x0 DUP2 PUSH1 0x0 SWAP1 SSTORE POP PUSH1 0x1 ADD PUSH2 0x589 JUMP JUMPDEST POP SWAP1 JUMP JUMPDEST PUSH1 0x0 PUSH2 0x5B8 PUSH2 0x5B3 DUP5 PUSH2 0x873 JUMP JUMPDEST PUSH2 0x84E JUMP JUMPDEST SWAP1 POP DUP3 DUP2 MSTORE PUSH1 0x20 DUP2 ADD DUP5 DUP5 DUP5 ADD GT ISZERO PUSH2 0x5D4 JUMPI PUSH2 0x5D3 PUSH2 0xA04 JUMP JUMPDEST JUMPDEST PUSH2 0x5DF DUP5 DUP3 DUP6 PUSH2 0x8FC JUMP JUMPDEST POP SWAP4 SWAP3 POP POP POP JUMP JUMPDEST PUSH1 0x0 DUP2 CALLDATALOAD SWAP1 POP PUSH2 0x5F6 DUP2 PUSH2 0xA9C JUMP JUMPDEST SWAP3 SWAP2 POP POP JUMP JUMPDEST PUSH1 0x0 DUP3 PUSH1 0x1F DUP4 ADD SLT PUSH2 0x611 JUMPI PUSH2 0x610 PUSH2 0x9FF JUMP JUMPDEST JUMPDEST DUP2 CALLDATALOAD PUSH2 0x621 DUP5 DUP3 PUSH1 0x20 DUP7 ADD PUSH2 0x5A5 JUMP JUMPDEST SWAP2 POP POP SWAP3 SWAP2 POP POP JUMP JUMPDEST PUSH1 0x0 DUP2 CALLDATALOAD SWAP1 POP PUSH2 0x639 DUP2 PUSH2 0xAB3 JUMP JUMPDEST SWAP3 SWAP2 POP POP JUMP JUMPDEST PUSH1 0x0 PUSH1 0x20 DUP3 DUP5 SUB SLT ISZERO PUSH2 0x655 JUMPI PUSH2 0x654 PUSH2 0xA0E JUMP JUMPDEST JUMPDEST PUSH1 0x0 PUSH2 0x663 DUP5 DUP3 DUP6 ADD PUSH2 0x5E7 JUMP JUMPDEST SWAP2 POP POP SWAP3 SWAP2 POP POP JUMP JUMPDEST PUSH1 0x0 DUP1 PUSH1 0x40 DUP4 DUP6 SUB SLT ISZERO PUSH2 0x683 JUMPI PUSH2 0x682 PUSH2 0xA0E JUMP JUMPDEST JUMPDEST PUSH1 0x0 DUP4 ADD CALLDATALOAD PUSH8 0xFFFFFFFFFFFFFFFF DUP2 GT ISZERO PUSH2 0x6A1 JUMPI PUSH2 0x6A0 PUSH2 0xA09 JUMP JUMPDEST JUMPDEST PUSH2 0x6AD DUP6 DUP3 DUP7 ADD PUSH2 0x5FC JUMP JUMPDEST SWAP3 POP POP PUSH1 0x20 PUSH2 0x6BE DUP6 DUP3 DUP7 ADD PUSH2 0x62A JUMP JUMPDEST SWAP2 POP POP SWAP3 POP SWAP3 SWAP1 POP JUMP JUMPDEST PUSH1 0x0 PUSH1 0x20 DUP3 DUP5 SUB SLT ISZERO PUSH2 0x6DE JUMPI PUSH2 0x6DD PUSH2 0xA0E JUMP JUMPDEST JUMPDEST PUSH1 0x0 PUSH2 0x6EC DUP5 DUP3 DUP6 ADD PUSH2 0x62A JUMP JUMPDEST SWAP2 POP POP SWAP3 SWAP2 POP POP JUMP JUMPDEST PUSH2 0x6FE DUP2 PUSH2 0x8C0 JUMP JUMPDEST DUP3 MSTORE POP POP JUMP JUMPDEST PUSH1 0x0 PUSH2 0x70F DUP3 PUSH2 0x8A4 JUMP JUMPDEST PUSH2 0x719 DUP2 DUP6 PUSH2 0x8AF JUMP JUMPDEST SWAP4 POP PUSH2 0x729 DUP2 DUP6 PUSH1 0x20 DUP7 ADD PUSH2 0x90B JUMP JUMPDEST PUSH2 0x732 DUP2 PUSH2 0xA13 JUMP JUMPDEST DUP5 ADD SWAP2 POP POP SWAP3 SWAP2 POP POP JUMP JUMPDEST PUSH1 0x0 PUSH2 0x74A PUSH1 0xE DUP4 PUSH2 0x8AF JUMP JUMPDEST SWAP2 POP PUSH2 0x755 DUP3 PUSH2 0xA24 JUMP JUMPDEST PUSH1 0x20 DUP3 ADD SWAP1 POP SWAP2 SWAP1 POP JUMP JUMPDEST PUSH1 0x0 PUSH2 0x76D PUSH1 0x23 DUP4 PUSH2 0x8AF JUMP JUMPDEST SWAP2 POP PUSH2 0x778 DUP3 PUSH2 0xA4D JUMP JUMPDEST PUSH1 0x40 DUP3 ADD SWAP1 POP SWAP2 SWAP1 POP JUMP JUMPDEST PUSH2 0x78C DUP2 PUSH2 0x8F2 JUMP JUMPDEST DUP3 MSTORE POP POP JUMP JUMPDEST PUSH1 0x0 PUSH1 0x60 DUP3 ADD SWAP1 POP PUSH2 0x7A7 PUSH1 0x0 DUP4 ADD DUP7 PUSH2 0x6F5 JUMP JUMPDEST DUP2 DUP2 SUB PUSH1 0x20 DUP4 ADD MSTORE PUSH2 0x7B9 DUP2 DUP6 PUSH2 0x704 JUMP JUMPDEST SWAP1 POP PUSH2 0x7C8 PUSH1 0x40 DUP4 ADD DUP5 PUSH2 0x783 JUMP JUMPDEST SWAP5 SWAP4 POP POP POP POP JUMP JUMPDEST PUSH1 0x0 PUSH1 0x60 DUP3 ADD SWAP1 POP DUP2 DUP2 SUB PUSH1 0x0 DUP4 ADD MSTORE PUSH2 0x7EA DUP2 DUP7 PUSH2 0x704 JUMP JUMPDEST SWAP1 POP PUSH2 0x7F9 PUSH1 0x20 DUP4 ADD DUP6 PUSH2 0x783 JUMP JUMPDEST PUSH2 0x806 PUSH1 0x40 DUP4 ADD DUP5 PUSH2 0x6F5 JUMP JUMPDEST SWAP5 SWAP4 POP POP POP POP JUMP JUMPDEST PUSH1 0x0 PUSH1 0x20 DUP3 ADD SWAP1 POP DUP2 DUP2 SUB PUSH1 0x0 DUP4 ADD MSTORE PUSH2 0x827 DUP2 PUSH2 0x73D JUMP JUMPDEST SWAP1 POP SWAP2 SWAP1 POP JUMP JUMPDEST PUSH1 0x0 PUSH1 0x20 DUP3 ADD SWAP1 POP DUP2 DUP2 SUB PUSH1 0x0 DUP4 ADD MSTORE PUSH2 0x847 DUP2 PUSH2 0x760 JUMP JUMPDEST SWAP1 POP SWAP2 SWAP1 POP JUMP JUMPDEST PUSH1 0x0 PUSH2 0x858 PUSH2 0x869 JUMP JUMPDEST SWAP1 POP PUSH2 0x864 DUP3 DUP3 PUSH2 0x970 JUMP JUMPDEST SWAP2 SWAP1 POP JUMP JUMPDEST PUSH1 0x0 PUSH1 0x40 MLOAD SWAP1 POP SWAP1 JUMP JUMPDEST PUSH1 0x0 PUSH8 0xFFFFFFFFFFFFFFFF DUP3 GT ISZERO PUSH2 0x88E JUMPI PUSH2 0x88D PUSH2 0x9D0 JUMP JUMPDEST JUMPDEST PUSH2 0x897 DUP3 PUSH2 0xA13 JUMP JUMPDEST SWAP1 POP PUSH1 0x20 DUP2 ADD SWAP1 POP SWAP2 SWAP1 POP JUMP JUMPDEST PUSH1 0x0 DUP2 MLOAD SWAP1 POP SWAP2 SWAP1 POP JUMP JUMPDEST PUSH1 0x0 DUP3 DUP3 MSTORE PUSH1 0x20 DUP3 ADD SWAP1 POP SWAP3 SWAP2 POP POP JUMP JUMPDEST PUSH1 0x0 PUSH2 0x8CB DUP3 PUSH2 0x8D2 JUMP JUMPDEST SWAP1 POP SWAP2 SWAP1 POP JUMP JUMPDEST PUSH1 0x0 PUSH20 0xFFFFFFFFFFFFFFFFFFFFFFFFFFFFFFFFFFFFFFFF DUP3 AND SWAP1 POP SWAP2 SWAP1 POP JUMP JUMPDEST PUSH1 0x0 DUP2 SWAP1 POP SWAP2 SWAP1 POP JUMP JUMPDEST DUP3 DUP2 DUP4 CALLDATACOPY PUSH1 0x0 DUP4 DUP4 ADD MSTORE POP POP POP JUMP JUMPDEST PUSH1 0x0 JUMPDEST DUP4 DUP2 LT ISZERO PUSH2 0x929 JUMPI DUP1 DUP3 ADD MLOAD DUP2 DUP5 ADD MSTORE PUSH1 0x20 DUP2 ADD SWAP1 POP PUSH2 0x90E JUMP JUMPDEST DUP4 DUP2 GT ISZERO PUSH2 0x938 JUMPI PUSH1 0x0 DUP5 DUP5 ADD MSTORE JUMPDEST POP POP POP POP JUMP JUMPDEST PUSH1 0x0 PUSH1 0x2 DUP3 DIV SWAP1 POP PUSH1 0x1 DUP3 AND DUP1 PUSH2 0x956 JUMPI PUSH1 0x7F DUP3 AND SWAP2 POP JUMPDEST PUSH1 0x20 DUP3 LT DUP2 EQ ISZERO PUSH2 0x96A JUMPI PUSH2 0x969 PUSH2 0x9A1 JUMP JUMPDEST JUMPDEST POP SWAP2 SWAP1 POP JUMP JUMPDEST PUSH2 0x979 DUP3 PUSH2 0xA13 JUMP JUMPDEST DUP2 ADD DUP2 DUP2 LT PUSH8 0xFFFFFFFFFFFFFFFF DUP3 GT OR ISZERO PUSH2 0x998 JUMPI PUSH2 0x997 PUSH2 0x9D0 JUMP JUMPDEST JUMPDEST DUP1 PUSH1 0x40 MSTORE POP POP POP JUMP JUMPDEST PUSH32 0x4E487B7100000000000000000000000000000000000000000000000000000000 PUSH1 0x0 MSTORE PUSH1 0x22 PUSH1 0x4 MSTORE PUSH1 0x24 PUSH1 0x0 REVERT JUMPDEST PUSH32 0x4E487B7100000000000000000000000000000000000000000000000000000000 PUSH1 0x0 MSTORE PUSH1 0x41 PUSH1 0x4 MSTORE PUSH1 0x24 PUSH1 0x0 REVERT JUMPDEST PUSH1 0x0 DUP1 REVERT JUMPDEST PUSH1 0x0 DUP1 REVERT JUMPDEST PUSH1 0x0 DUP1 REVERT JUMPDEST PUSH1 0x0 DUP1 REVERT JUMPDEST PUSH1 0x0 PUSH1 0x1F NOT PUSH1 0x1F DUP4 ADD AND SWAP1 POP SWAP2 SWAP1 POP JUMP JUMPDEST PUSH32 0x4163636573732064656E6965642E000000000000000000000000000000000000 PUSH1 0x0 DUP3 ADD MSTORE POP JUMP JUMPDEST PUSH32 0x4163636573732064656E6965642E204D757374206265203138206F72206F6C64 PUSH1 0x0 DUP3 ADD MSTORE PUSH32 0x65722E0000000000000000000000000000000000000000000000000000000000 PUSH1 0x20 DUP3 ADD MSTORE POP JUMP JUMPDEST PUSH2 0xAA5 DUP2 PUSH2 0x8C0 JUMP JUMPDEST DUP2 EQ PUSH2 0xAB0 JUMPI PUSH1 0x0 DUP1 REVERT JUMPDEST POP JUMP JUMPDEST PUSH2 0xABC DUP2 PUSH2 0x8F2 JUMP JUMPDEST DUP2 EQ PUSH2 0xAC7 JUMPI PUSH1 0x0 DUP1 REVERT JUMPDEST POP JUMP INVALID LOG2 PUSH5 0x6970667358 0x22 SLT KECCAK256 0xDE EXTCODEHASH 0x2C PUSH16 0x950E3ADB9EF3C08C7281B57CC91B059C 0x2C PUSH27 0x367F3E6ECCF5EDF9C79C64736F6C63430008070033000000000000 "
				},
				"gasEstimates": {
					"creation": {
						"codeDepositCost": "563200",
						"executionCost": "infinite",
						"totalCost": "infinite"
					},
					"external": {
						"addTransaction(uint256)": "49189",
						"doAdultAction()": "2650",
						"updateUser(string,uint256)": "infinite",
						"users(address)": "infinite"
					}
				},
				"methodIdentifiers": {
					"addTransaction(uint256)": "176f964c",
					"doAdultAction()": "12786d7e",
					"updateUser(string,uint256)": "2bf9866f",
					"users(address)": "a87430ba"
				}
			},
			"storageLayout": {
				"storage": [
					{
						"astId": 6,
						"contract": "FinalCase.sol:Example",
						"label": "users",
						"offset": 0,
						"slot": "0",
						"type": "t_mapping(t_address,t_struct(User)16_storage)"
					}
				],
				"types": {
					"t_address": {
						"encoding": "inplace",
						"label": "address",
						"numberOfBytes": "20"
					},
					"t_array(t_uint256)dyn_storage": {
						"base": "t_uint256",
						"encoding": "dynamic_array",
						"label": "uint256[]",
						"numberOfBytes": "32"
					},
					"t_mapping(t_address,t_struct(User)16_storage)": {
						"encoding": "mapping",
						"key": "t_address",
						"label": "mapping(address => struct Example.User)",
						"numberOfBytes": "32",
						"value": "t_struct(User)16_storage"
					},
					"t_string_storage": {
						"encoding": "bytes",
						"label": "string",
						"numberOfBytes": "32"
					},
					"t_struct(User)16_storage": {
						"encoding": "inplace",
						"label": "struct Example.User",
						"members": [
							{
								"astId": 8,
								"contract": "FinalCase.sol:Example",
								"label": "name",
								"offset": 0,
								"slot": "0",
								"type": "t_string_storage"
							},
							{
								"astId": 10,
								"contract": "FinalCase.sol:Example",
								"label": "age",
								"offset": 0,
								"slot": "1",
								"type": "t_uint256"
							},
							{
								"astId": 13,
								"contract": "FinalCase.sol:Example",
								"label": "pastTransactions",
								"offset": 0,
								"slot": "2",
								"type": "t_array(t_uint256)dyn_storage"
							},
							{
								"astId": 15,
								"contract": "FinalCase.sol:Example",
								"label": "userAddress",
								"offset": 0,
								"slot": "3",
								"type": "t_address"
							}
						],
						"numberOfBytes": "128"
					},
					"t_uint256": {
						"encoding": "inplace",
						"label": "uint256",
						"numberOfBytes": "32"
					}
				}
			},
			"userdoc": {
				"kind": "user",
				"methods": {},
				"version": 1
			}
		}
	}
}